:020000040800F2
:10800000000001202DCA0008ADC70008B5C7000850
:10801000FDC7000805C800084DC8000800000000A2
:1080200000000000000000000000000095C80008EB
:10803000A3C8000800000000B1C80008BFC80008BD
:108040007DCA00087DCA00087DCA00087DCA0008F4
:108050007DCA00087DCA0008CBC80008D9C800083E
:10806000E7C800087DCA0008F5C800087DCA0008F6
:1080700005C9000819C900087DCA00082DC90008F3
:108080007DCA00087DCA000841C900087DCA0008F1
:1080900055C900087DCA00087DCA00086DC90008DE
:1080A0007DC9000899C900087DCA00087DCA00087A
:1080B0007DCA000800000000000000007DCA000822
:1080C0007DCA0008B5C90008C9C900087DCA0008F2
:1080D0007DCA00087DCA00087DCA00087DCA000864
:1080E000DDC900087DCA0008000000000000000093
:1080F0000000000000000000000000000000000080
:10810000000000007DCA0008000000007DCA0008D1
:1081100000000000000000007DCA0008EDC9000852
:108120007DCA00087DCA00087DCA00087DCA000813
:108130007DCA0008000000000000000000000000F0
:108140007DCA00087DCA00087DCA00080000000042
:108150007DCA00087DCA00087DCA00087DCA0008E3
:108160007DCA00087DCA00087DCA00080000000022
:108170007DCA00087DCA0008000000000000000061
:0C8180007DCA00087DCA00087DCA000806
:1081900010B5054C237833B9044B13B10448AFF341
:1081A00000800123237010BD380000200000000073
:1081B0002C46010808B5034B1BB103490348AFF334
:1081C000008008BD000000003C0000202C46010893
:1081D00070B54FF0FF0C4CF4E06C1CEA11541DBF5D
:1081E0001CEA135594EA0C0F95EA0C0F00F0DEF828
:1081F0002C4481EA030621EA4C5123EA4C5350EA0D
:10820000013518BF52EA033541F4801143F480135D
:1082100038D0A0FB02CE4FF00005E1FB02E506F0EE
:108220000042E0FB03E54FF00006E1FB03569CF043
:10823000000F18BF4EF0010EA4F1FF04B6F5007F49
:1082400064F5407404D25FEA4E0E6D4146EB0606BB
:1082500042EAC62141EA55514FEAC52040EA5E5044
:108260004FEACE2EB4F1FD0C88BFBCF5E06F1ED8EE
:10827000BEF1004F08BF5FEA500E50F1000041EB25
:10828000045170BD06F0004646EA010140EA0200D2
:1082900081EA0301B4EB5C04C2BFD4EB0C0541EAF4
:1082A000045170BD41F480114FF0000E013C00F309
:1082B000AB8014F1360FDEBF002001F0004170BD2D
:1082C000C4F10004203C35DA0C341BDC04F1140446
:1082D000C4F1200500FA05F320FA04F001FA05F2D2
:1082E00040EA020001F0004221F0004110EBD3709F
:1082F00021FA04F642EB06015EEA430E08BF20EACB
:10830000D37070BDC4F10C04C4F1200500FA04F36D
:1083100020FA05F001FA04F240EA020001F00041FF
:1083200010EBD37041F100015EEA430E08BF20EA72
:10833000D37070BDC4F1200500FA05F24EEA020EBA
:1083400020FA04F301FA05F243EA020321FA04F0E9
:1083500001F0004121FA04F220EA020000EBD370A0
:108360005EEA430E08BF20EAD37070BD94F0000FA0
:108370000FD101F00046400041EB010111F4801FD4
:1083800008BF013CF7D041EA060195F0000F18BF85
:10839000704703F00046520043EB030313F4801FC1
:1083A00008BF013DF7D043EA0603704794EA0C0F7B
:1083B0000CEA135518BF95EA0C0F0CD050EA410691
:1083C00018BF52EA4306D1D181EA030101F000410E
:1083D0004FF0000070BD50EA410606BF1046194636
:1083E00052EA430619D094EA0C0F02D150EA013642
:1083F00013D195EA0C0F05D152EA03361CBF104683
:1084000019460AD181EA030101F0004141F0FE4121
:1084100041F470014FF0000070BD41F0FE4141F4A5
:10842000780170BD81F0004102E000BF83F000439D
:1084300030B54FEA41044FEA430594EA050F08BFFF
:1084400090EA020F1FBF54EA000C55EA020C7FEAC3
:10845000645C7FEA655C00F0E2804FEA5454D4EB40
:108460005555B8BF6D420CDD2C4480EA020281EA0A
:10847000030382EA000083EA010180EA020281EA42
:108480000303362D88BF30BD11F0004F4FEA013194
:108490004FF4801C4CEA113102D0404261EB4101A3
:1084A00013F0004F4FEA03334CEA133302D0524229
:1084B00063EB430394EA050F00F0A780A4F10104E5
:1084C000D5F1200E0DDB02FA0EFC22FA05F280181F
:1084D00041F1000103FA0EF2801843FA05F3594105
:1084E0000EE0A5F120050EF1200E012A03FA0EFC84
:1084F00028BF4CF0020C43FA05F3C01851EBE371AE
:1085000001F0004507D54FF0000EDCF1000C7EEBCA
:1085100000006EEB0101B1F5801F1BD3B1F5001F08
:108520000CD349085FEA30004FEA3C0C04F1010427
:108530004FEA445212F5800F80F09A80BCF1004F50
:1085400008BF5FEA500C50F1000041EB045141EAD2
:10855000050130BD5FEA4C0C404141EB0101013C9B
:1085600028BFB1F5801FE9D291F0000F04BF01468A
:108570000020B1FA81F308BF2033A3F10B03B3F15C
:1085800020020CDA0C3208DD02F1140CC2F10C02EC
:1085900001FA0CF021FA02F10CE002F11402D8BF4A
:1085A000C2F1200C01FA02F120FA0CFCDCBF41EA16
:1085B0000C019040E41AA2BF01EB0451294330BDE5
:1085C0006FEA04041F3C1CDA0C340EDC04F11404C2
:1085D000C4F1200220FA04F001FA02F340EA030099
:1085E00021FA04F345EA030130BDC4F10C04C4F1DF
:1085F000200220FA02F001FA04F340EA03002946BF
:1086000030BD21FA04F0294630BD94F0000F83F408
:10861000801306BF81F480110134013D4EE77FEAEB
:10862000645C18BF7FEA655C29D094EA050F08BF37
:1086300090EA020F05D054EA000C04BF1946104618
:1086400030BD91EA030F1EBF0021002030BD5FEA5C
:10865000545C05D14000494128BF41F0004130BD84
:1086600014F580043CBF01F5801130BD01F00045D8
:1086700045F0FE4141F470014FF0000030BD7FEA4B
:10868000645C1ABF194610467FEA655C1CBF0B4646
:10869000024650EA013406BF52EA033591EA030F5D
:1086A00041F4002130BD00BF90F0000F04BF002155
:1086B000704730B54FF4806404F132044FF0000588
:1086C0004FF0000150E700BF90F0000F04BF002101
:1086D000704730B54FF4806404F1320410F0004567
:1086E00048BF40424FF000013EE700BF42004FEA62
:1086F000E2014FEA31014FEA02701FBF12F07F43DF
:1087000093F07F4F81F06051704732F07F4208BF95
:10871000704793F07F4F04BF41F40021704730B59C
:108720004FF4607401F0004521F000411CE700BFE8
:1087300050EA010208BF704730B54FF000050AE06B
:1087400050EA010208BF704730B511F0004502D56C
:10875000404261EB41014FF4806404F132045FEA6E
:10876000915C3FF4D8AE4FF003025FEADC0C18BF17
:1087700003325FEADC0C18BF033202EBDC02C2F109
:10878000200300FA03FC20FA02F001FA03FE40EA9B
:108790000E0021FA02F11444BDE600BF4A0011D2D6
:1087A00012F5001211D20DD56FF47873B3EB62524B
:1087B0000ED44FEAC12343F0004343EA505323FA57
:1087C00002F070474FF00000704750EA013002D1CC
:1087D0004FF0FF3070474FF00000704780B584B015
:1087E00000AF78600B467B80194B80221A6107F03E
:1087F00023F97B88FB60174B00221A607B68C3F368
:108800001303DB0A134A9360124AFB68D360114BCF
:1088100001225A600E4B48F280021A614FF47A70BE
:1088200007F048F907F1080319460A4807F0F6F976
:108830000346002B05D007F021F907F02FF9034676
:1088400002E007F01BF9002318461037BD4680BD33
:10885000002002405400002080B586B000AFF860D0
:10886000B9601346FB8000237B611B4B48F28002FA
:108870001A61FB88FF33002B00DAFF331B129BB217
:108880001946F868FFF7AAFF07F0D6F819E07B69E8
:10889000DB00BA681344D3E90023F968002007F02D
:1088A0005FF80346002B06D1FB680833FB607B6949
:1088B00001337B6105E007F0E1F807F0EFF80346CC
:1088C00006E0FB887A699A42E1DB07F0D7F80023DB
:1088D00018461837BD4680BD0020024080B400AF66
:1088E000144B154A1A60134B134A5A60114B134A22
:1088F0009A60104B114ADA600E4B104A1A610D4B08
:108900000E4A5A610E4B10221A800D4B20225A80BB
:108910000B4B01229A800A4B0222DA80084B042278
:108920001A81074B4FF480625A8100BFBD465DF843
:10893000047B7047640000200008004800040048E1
:108940007C00002080B586B000AF00237B6121E071
:10895000144A7B6932F813303B604FF444137B6058
:108960000023BB60104A7B6952F823200D497B69C4
:1089700031F813301946104607F0F0FB0A4A7B69BC
:1089800052F823303A461146184607F06DFA7B69D3
:1089900001337B617B69052BDADD00BF00BF18372F
:1089A000BD4680BD7C0000206400002080B586B0FC
:1089B00000AF00237B6120E0144A7B6932F813305A
:1089C0003B6001237B600023BB60114A7B6952F846
:1089D00023200E497B6931F813301946104607F001
:1089E000BDFB0B4A7B6952F823303A4611461846C4
:1089F00007F03AFA7B6901337B617B69052BDBDD8C
:108A000000BF00BF1837BD4680BD00BF7C000020FE
:108A10006400002080B584B000AF78607B68104AA5
:108A2000934219D10E480AF0B5F90023FB600EE01D
:108A30000C4AFB6852F823000B4AFB6832F81330EB
:108A40000022194607F07CFCFB680133FB60FB68E1
:108A5000052BEDDDFFF776FF00BF1037BD4680BD6B
:108A600064030020640000207C00002080B582B0F8
:108A700000AF7860FFF79AFF012004F075F80C4B07
:108A80001B686FF001021A610A4A7B6852F82300E2
:108A9000094A7B6832F813300122194607F050FC6E
:108AA00003480AF023F900BF0837BD4680BD00BF68
:108AB00064030020640000207C00002080B485B0A6
:108AC00000AF78600023FB6013E0134AFB68134497
:108AD0001B78012B05D1114AFB689B001344104AF7
:108AE0001A600D4AFB68134400221A70FB680133B8
:108AF000FB60FB68052BE8DD074A7B681344012215
:108B00001A70084B1B6800225A6200BF1437BD461A
:108B10005DF8047B704700BF88000020C000002083
:108B200000802644CC02002080B485B000AF03460C
:108B3000FB800023FB600023BB600CE0334ABB6872
:108B400032F81330FA889A4202D1BB68FB6005E024
:108B5000BB680133BB60BB68052BEFDD2C4AFB68AB
:108B600013441B78012B0DD12A4B1B685B6A1946F5
:108B7000294AFB6842F82310254AFB681344022265
:108B80001A703DE0224AFB6813441B78022B37D150
:108B9000204B1B685B6A07EE903AF8EE677A1F4A33
:108BA000FB689B001344C3ED007A1C4AFB689B00E2
:108BB000134493ED007A184AFB6852F8233007EE0D
:108BC000903AF8EEE77A77EE677A144AFB689B00F2
:108BD0001344C3ED007A114AFB689B00134493EDE4
:108BE000007ADFED0F6AC7EE267A0E4AFB689B001B
:108BF0001344C3ED007A064AFB68134400221A703E
:108C000000BF1437BD465DF8047B70477C00002030
:108C100088000020CC02002090000020A800002046
:108C200000009145C000002080B584B000AF78609E
:108C300039600023FB6012E03B68002B04D00F4A30
:108C4000FB68134400221A700C4AFB6813441B781B
:108C5000002B01D001230CE0FB680133FB60FB68B3
:108C6000052BE9DD7868FFF729FF7868FFF7FEFE3E
:108C7000002318461037BD4680BD00BF8800002085
:108C800080B400AF00BFBD465DF8047B704780B480
:108C900083B000AF786000BF0C37BD465DF8047B41
:108CA0007047000080B588B002AF03463960FB8092
:108CB00013467B71FB885B0099B26423022236481D
:108CC00008F028FF0346FB733B687A791A70FB7B38
:108CD000002B0DD000237B6107E07B693A681344C9
:108CE00000221A707B6901337B617B691F2BF4DDE5
:108CF000FB885B0099B20023009301233A68264861
:108D000008F0B8FD0346BB7300233B6102E03B69FA
:108D100001333B61204809F0F1F80346012B04D0F0
:108D20003B694CF24F329342F1D9BB7B002B04D10B
:108D30003B694CF24F32934201D9BB7B28E0FB8860
:108D40005B0099B24FF00073009320233A681248F9
:108D500008F042FE0346BB7300233B6102E03B691F
:108D600001333B610C4809F0C9F80346012B04D0DC
:108D70003B694CF24F329342F1D9BB7B002B04D1BB
:108D80003B694CF24F32934201D9BB7B00E0BB7B85
:108D900018461837BD4680BD300200200000000094
:108DA000F0B585B000AF03463960FB80FB88013B1E
:108DB000652B00F2C48701A252F823F0558F0008FA
:108DC000998F00083F9D00083F9D00083F9D0008C7
:108DD0003F9D00083F9D0008BD8F000821900008BE
:108DE00065900008A99000083F9D00083F9D00087D
:108DF000ED900008119100083F9D00085591000872
:108E000099910008DD910008219200086592000800
:108E1000BD920008019300083F9D00083F9D000897
:108E20003F9D00083F9D0008459300083F9D0008B6
:108E30003F9D00083F9D00083F9D00083F9D0008A2
:108E40003F9D00083F9D00083F9D00083F9D000892
:108E50003F9D00083F9D00083F9D00083F9D000882
:108E60003F9D00083F9D00083F9D00083F9D000872
:108E70003F9D00083F9D00083F9D00083F9D000862
:108E80003F9D00083F9D000889930008CD9300088E
:108E9000119400085594000899940008DD94000886
:108EA0002195000865950008A7950008ED95000834
:108EB0002F960008719600083F9D00083F9D00080E
:108EC0003F9D00083F9D00083F9D00083F9D000812
:108ED0003F9D00083F9D00083F9D00083F9D000802
:108EE0003F9D00083F9D00083F9D00083F9D0008F2
:108EF0003F9D0008B3960008D59600081797000814
:108F0000A7970008E99700082B9800086B980008BD
:108F10003F9D00083F9D00083F9D00083F9D0008C1
:108F20003F9D00083F9D00083F9D00083F9D0008B1
:108F30003F9D00083F9D00083F9D00083F9D0008A1
:108F40003F9D00083F9D00083F9D0008B598000820
:108F5000BD9C00081C2001F063FE034619463B68D7
:108F60001878D54A0B465B000B445B00134405336D
:108F700002461A701C2001F053FE034619463B6856
:108F80005878CD4A0B465B000B445B001344043316
:108F900002461A7000F001BF1D2001F041FE034699
:108FA00019463B681878C44A0B465B000B445B00CB
:108FB0001344053302461A7000F0EFBE3B680133DC
:108FC0001B781B023A68127813441846FFF77CFBA3
:108FD000B5A3D3E90023FFF7FBF802460B46104682
:108FE0001946B3A3D3E90023FFF720FA02460B4644
:108FF00014461D461E2001F013FE03461E46204661
:109000002946FFF7CBFB0346D9B2AB4A33465B0098
:1090100033445B00134405330A461A7000F0BDBEAA
:109020001F2001F0FDFD034619463B681878A24A4F
:109030000B465B000B445B001344053302461A7079
:109040001F2001F0EDFD034619463B6858789A4A07
:109050000B465B000B445B001344043302461A705A
:1090600000F09BBE202001F0DBFD034619463B6863
:109070001878914A0B465B000B445B0013440533A0
:1090800002461A70202001F0CBFD034619463B68CA
:109090005878894A0B465B000B445B001344043349
:1090A00002461A7000F079BE212001F0B9FD034696
:1090B00019463B681878804A0B465B000B445B00FE
:1090C0001344053302461A70212001F0A9FD03461E
:1090D00019463B685878784A0B465B000B445B00A6
:1090E0001344043302461A7000F057BE222001F0E8
:1090F00097FD034619463B6818786F4A0B465B009C
:109100000B445B001344053302461A7000F045BE61
:10911000232001F085FD034619463B681878664A0E
:109120000B465B000B445B001344053302461A7088
:10913000232001F075FD034619463B6858785E4AC6
:109140000B465B000B445B001344043302461A7069
:1091500000F023BE242001F063FD034619463B685E
:109160001878554A0B465B000B445B0013440533EB
:1091700002461A70242001F053FD034619463B684D
:1091800058784D4A0B465B000B445B001344043394
:1091900002461A7000F001BE252001F041FD034691
:1091A00019463B681878444A0B465B000B445B0049
:1091B0001344053302461A70252001F031FD0346A1
:1091C00019463B6858783C4A0B465B000B445B00F1
:1091D0001344043302461A7000F0DFBD262001F06C
:1091E0001FFD034619463B681878334A0B465B005F
:1091F0000B445B001344053302461A70262001F02D
:109200000FFD034619463B6858782B4A0B465B0016
:109210000B445B001344043302461A7000F0BDBDDA
:10922000272001F0FDFC034619463B681878224AC6
:109230000B465B000B445B001344053302461A7077
:10924000272001F0EDFC034619463B6858781A4A7E
:109250000B465B000B445B001344043302461A7058
:1092600000F09BBD282001F0DBFC034619463B685B
:109270001878114A0B465B000B445B00134405331E
:1092800002461A70282001F0CBFC034619463B68C1
:109290005878094A0B465B000B445B0013440433C7
:1092A00002461A7000F079BD9A9999999999B93F37
:1092B000000000000010714058050020292001F036
:1092C000AFFC034619463B681878C74A0B465B005B
:1092D0000B445B001344053302461A70292001F049
:1092E0009FFC034619463B685878BF4A0B465B0013
:1092F0000B445B001344043302461A7000F04DBD6A
:109300002A2001F08DFC034619463B681878B64ABE
:109310000B465B000B445B001344053302461A7096
:109320002A2001F07DFC034619463B685878AE4A76
:109330000B465B000B445B001344043302461A7077
:1093400000F02BBD2B2001F06BFC034619463B6857
:109350001878A54A0B465B000B445B0013440533A9
:1093600002461A702B2001F05BFC034619463B684D
:1093700058789D4A0B465B000B445B001344043352
:1093800002461A7000F009BD2C2001F049FC03468A
:1093900019463B681878944A0B465B000B445B0007
:1093A0001344053302461A702C2001F039FC0346A1
:1093B00019463B6858788C4A0B465B000B445B00AF
:1093C0001344043302461A7000F0E7BC2D2001F06C
:1093D00027FC034619463B681878834A0B465B0016
:1093E0000B445B001344053302461A702D2001F034
:1093F00017FC034619463B6858787B4A0B465B00CE
:109400000B445B001344043302461A7000F0C5BCE1
:109410002E2001F005FC034619463B681878724A75
:109420000B465B000B445B001344053302461A7085
:109430002E2001F0F5FB034619463B6858786A4A2E
:109440000B465B000B445B001344043302461A7066
:1094500000F0A3BC2F2001F0E3FB034619463B6854
:109460001878614A0B465B000B445B0013440533DC
:1094700002461A702F2001F0D3FB034619463B68C1
:109480005878594A0B465B000B445B001344043385
:1094900002461A7000F081BC302001F0C1FB034687
:1094A00019463B681878504A0B465B000B445B003A
:1094B0001344053302461A70302001F0B1FB034615
:1094C00019463B685878484A0B465B000B445B00E2
:1094D0001344043302461A7000F05FBC312001F0DF
:1094E0009FFB034619463B6818783F4A0B465B00D2
:1094F0000B445B001344053302461A70312001F01F
:109500008FFB034619463B685878374A0B465B0089
:109510000B445B001344043302461A7000F03DBC58
:10952000322001F07DFB034619463B6818782E4A2D
:109530000B465B000B445B001344053302461A7074
:10954000322001F06DFB034619463B685878264AE5
:109550000B465B000B445B001344043302461A7055
:1095600000F01BBC332001F05BFB034619463B684F
:1095700018781D4A0B465B000B445B00134405330F
:1095800002461A70332001F04BFB034619463B6834
:109590005878154A0B465B000B445B0013440433B8
:1095A00002461A70F9E3342001F03AFB03461946EB
:1095B0003B6818780C4A0B465B000B445B00134475
:1095C000053302461A70342001F02AFB034619467F
:1095D0003B685878044A0B465B000B445B0013441D
:1095E000043302461A70D8E358050020352001F0F4
:1095F00017FB034619463B681878AD4A0B465B00DB
:109600000B445B001344053302461A70352001F009
:1096100007FB034619463B685878A54A0B465B0092
:109620000B445B001344043302461A70B5E3362042
:1096300001F0F6FA034619463B6818789C4A0B4637
:109640005B000B445B001344053302461A7036205E
:1096500001F0E6FA034619463B685878944A0B46EF
:109660005B000B445B001344043302461A7094E31E
:10967000372001F0D5FA034619463B6818788C4A22
:109680000B465B000B445B001344053302461A7023
:10969000372001F0C5FA034619463B685878844ADA
:1096A0000B465B000B445B001344043302461A7004
:1096B00073E3382001F0B4FA034619463B68187882
:1096C0007B4A0B465B000B445B00134405330246A8
:1096D0001A7062E3392001F0A3FA034619463B6889
:1096E0001878734A0B465B000B445B001344053348
:1096F00002461A70392001F093FA034619463B6876
:1097000058786B4A0B465B000B445B0013440433F0
:1097100002461A7041E33A2001F082FA03461946E4
:109720003B681878624A0B465B000B445B001344AD
:10973000053302461A703B6802331B78DB08DBB244
:1097400003F00103FB723B6801331B785B08DBB25B
:1097500003F00203DAB2FB7A1344FB723B68013375
:109760001B781B09DBB203F00403DAB2FB7A134463
:10977000FB723B6801331B781B09DBB203F0080363
:10978000DAB2FB7A1344FB723A2001F049FA03463D
:109790001946474A0B465B000B445B0013440433F5
:1097A000FA7A1A70F9E23B2001F03AFA03461946B8
:1097B0003B6818783E4A0B465B000B445B00134441
:1097C000053302461A703B2001F02AFA0346194677
:1097D0003B685878364A0B465B000B445B001344E9
:1097E000043302461A70D8E23C2001F019FA03460D
:1097F00019463B6818782E4A0B465B000B445B0009
:109800001344053302461A703C2001F009FA03465E
:1098100019463B685878264A0B465B000B445B00B0
:109820001344043302461A70B7E23B6801331B78D5
:109830005BB203F03E035AB23B6802331B785BB263
:1098400003F001035BB213435CB23D2001F0E8F981
:1098500003461946E0B2164A0B465B000B445B0018
:109860001344053302461A7097E23B681B78DB0805
:10987000DBB25BB203F00E035AB23B6801331B78D4
:109880009B09DBB25BB203F001035BB213435CB232
:109890003E2001F0C5F903461946E0B2044A0B46E2
:1098A0005B000B445B001344053302461A7074E2FC
:1098B000580500203F2001F0B3F9034619463B68E4
:1098C0001878D54A0B465B000B445B001344053304
:1098D00002461A703F2001F0A3F9034619463B687F
:1098E0005878CD4A0B465B000B445B0013440433AD
:1098F00002461A70402001F093F9034619463B686E
:109900009878C54A0B465B000B445B001344053353
:1099100002461A70402001F083F9034619463B685D
:10992000D878BD4A0B465B000B445B0013440433FC
:1099300002461A70412001F073F9034619463B684C
:109940001879B54A0B465B000B445B0013440533A2
:1099500002461A70412001F063F9034619463B683C
:109960005879AD4A0B465B000B445B00134404334B
:1099700002461A70422001F053F9034619463B682B
:109980009879A54A0B465B000B445B0013440533F2
:1099900002461A70422001F043F9034619463B681B
:1099A000D8799D4A0B465B000B445B00134404339B
:1099B00002461A70432001F033F9034619463B680A
:1099C000187A954A0B465B000B445B001344053341
:1099D00002461A70432001F023F9034619463B68FA
:1099E000587A8D4A0B465B000B445B0013440433EA
:1099F00002461A70442001F013F9034619463B68E9
:109A0000987A854A0B465B000B445B001344053390
:109A100002461A70442001F003F9034619463B68D8
:109A2000D87A7D4A0B465B000B445B001344043339
:109A300002461A70452001F0F3F8034619463B68C8
:109A4000187B754A0B465B000B445B0013440533DF
:109A500002461A70452001F0E3F8034619463B68B8
:109A6000587B6D4A0B465B000B445B001344043388
:109A700002461A70462001F0D3F8034619463B68A7
:109A8000987B654A0B465B000B445B00134405332F
:109A900002461A70462001F0C3F8034619463B6897
:109AA000D87B5D4A0B465B000B445B0013440433D8
:109AB00002461A70472001F0B3F8034619463B6886
:109AC000187C554A0B465B000B445B00134405337E
:109AD00002461A70472001F0A3F8034619463B6876
:109AE000587C4D4A0B465B000B445B001344043327
:109AF00002461A70482001F093F8034619463B6865
:109B0000987C454A0B465B000B445B0013440533CD
:109B100002461A70482001F083F8034619463B6854
:109B2000D87C3D4A0B465B000B445B001344043376
:109B300002461A70492001F073F8034619463B6843
:109B4000187D354A0B465B000B445B00134405331C
:109B500002461A70492001F063F8034619463B6833
:109B6000587D2D4A0B465B000B445B0013440433C5
:109B700002461A704A2001F053F8034619463B6822
:109B8000987D254A0B465B000B445B00134405336C
:109B900002461A704A2001F043F8034619463B6812
:109BA000D87D1D4A0B465B000B445B001344043315
:109BB00002461A704B2001F033F8034619463B6801
:109BC000187E154A0B465B000B445B0013440533BB
:109BD00002461A704B2001F023F8034619463B68F1
:109BE000587E0D4A0B465B000B445B001344043364
:109BF00002461A704C2001F013F8034619463B68E0
:109C0000987D054A0B465B000B445B00134405330B
:109C100002461A704C2001E05805002001F000F8BF
:109C2000034619463B68D87D5E4A0B465B000B44F1
:109C30005B001344043302461A704D2000F0F0FF1D
:109C4000034619463B68187E564A0B465B000B4498
:109C50005B001344053302461A704D2000F0E0FF0C
:109C6000034619463B68587E4E4A0B465B000B4440
:109C70005B001344043302461A704E2000F0D0FFFC
:109C8000034619463B68187E464A0B465B000B4468
:109C90005B001344053302461A704E2000F0C0FFEB
:109CA000034619463B68587E3E4A0B465B000B4410
:109CB0005B001344043302461A706EE04F2000F03C
:109CC000AFFF034619463B68187E364A0B465B00D9
:109CD0000B445B001344053302461A704F2000F01A
:109CE0009FFF034619463B68587E2E4A0B465B0091
:109CF0000B445B001344043302461A70502000F0FA
:109D00008FFF034619463B68187E264A0B465B00C8
:109D10000B445B001344053302461A70502000F0D8
:109D20007FFF034619463B68587E1E4A0B465B0080
:109D30000B445B001344043302461A702DE00023E9
:109D4000FB6026E0FB68DBB21C33DBB2184600F098
:109D500067FF03461946134A0B465B000B445B0042
:109D60001344053300221A70FB68DBB21C33DBB2EC
:109D7000184600F055FF034619460A4A0B465B0099
:109D80000B445B001344043300221A70FB68013358
:109D9000FB60FB68632BD5DD00BF00BF1437BD46F9
:109DA000F0BD00BF5805002080B58CB000AF7860D2
:109DB00000237B851A4A7B6813441B787B857B8D47
:109DC000DAB207F1080319460B20FEF76BFF0346D2
:109DD000002B19D0134807F023FD124807F068FC48
:109DE0000346002B01D002F009F90023FB6208E0D2
:109DF00007F10802FB6A134400221A70FB6A013360
:109E0000FB62FB6A1F2BF3DD07F108027B8D114615
:109E10001846FEF7C5FF00BF3037BD4680BD00BF06
:109E2000444601083002002080B400AFBFF34F8FDA
:109E300000BF064BDB6803F4E0620449044B1343A4
:109E4000CB60BFF34F8F00BF00BFFDE700ED00E028
:109E50000400FA0584B080B582B000AF07F1100CA1
:109E60008CE80F0000237B6007F1300307F1280224
:109E700007F11001144804F037FD0346FB7017E0AA
:109E800007F1300307F1280207F110010E4804F032
:109E90002BFD0346FB70FB78012B05D1012000F060
:109EA000E1FB7B6801337B607B68B3F57A7F03D08D
:109EB000FB78002BE4D100E000BF0837BD46BDE8C9
:109EC000804004B0704700BF08020020B0B582B0E7
:109ED00000AF78600D4B0E4A0021786804F0D4FD85
:109EE0000346002B01D002F089F80A4A084B1446B9
:109EF0001D460FCD0FC40FCD0FC42B682360064B3A
:109F000001221A7000BF0837BD46B0BDF80000201E
:109F1000DC00002000010020D800002084B0B0B593
:109F20009AB006AF07F1600484E80F000023FB63DA
:109F3000894B1B7F212B28D1874B5B7F542B24D14E
:109F4000854B9B7F542B20D1834BDB7F303B4FF4E1
:109F50007A7203FB02F2804B93F82030303B64218D
:109F600001FB03F3D1187C4B93F82130A3F13002AD
:109F700013469B0013445B00CA18774B93F82330B9
:109F8000303B1344754A1360ADE2734B1B7F532B78
:109F90005AD1714B5B7F4C2B56D16F4B93F82030CD
:109FA00003F00103FB636C4B987F6D49FA6B13461A
:109FB000DB009B1A0B4402461A70674BD87F684936
:109FC000FA6B1346DB009B1A0B44013302461A70EE
:109FD000614B93F821006249FA6B1346DB009B1A30
:109FE0000B44023302461A705B4B93F822005C4923
:109FF000FA6B1346DB009B1A0B44033302461A70BC
:10A00000554B93F823005649FA6B1346DB009B1A15
:10A010000B44043302461A705149FA6B1346DB00B5
:10A020009B1A0B44053301221A704B4B93F82030D6
:10A030005B08D8B24A49FA6B1346DB009B1A0B4403
:10A04000063302461A704EE2434B1B7F502B0FD152
:10A05000414B5B7F462B0BD13F4B9B7F002B03D1AA
:10A06000404B00221A703EE23E4B01221A703AE247
:10A07000394B1B7F532B40F0AA81374B5B7F532B0F
:10A0800040F0A581344B9B7F002B1FD1324BDB7FEF
:10A09000184600F0C5FD0346FF2B00F027822E4B2B
:10A0A00093F822309BB21B029DB22B4B93F82330C6
:10A0B0009CB2294BDB7F184600F0B2FD03461A46DE
:10A0C0002B1999B2284B23F8121009E2224B9B7FDF
:10A0D000012B38D10023FB642AE01F4BDA7FFB6C95
:10A0E000DBB21344DBB2184600F09AFD0346FF2BA7
:10A0F0001AD0194B93F822309BB21B029DB2164B1B
:10A1000093F823309CB2144BDA7FFB6CDBB2134420
:10A11000DBB2184600F084FD03461A462B1999B2AB
:10A12000114B23F8121000E000BFFB6C0133FB64FD
:10A13000094B93F820301A46074BDB7FD31AFA6C91
:10A140009A42CADDCCE1044B9B7F022B40F0948005
:10A150000023BB6483E000BF000100202401002035
:10A160002405002020050020CC060020B54BDB7F15
:10A17000184600F055FD034687F83A3097F83A3014
:10A18000FF2B00F0B58197F83A30AF4A0121D15446
:10A1900008237B610023FB6040F205137B600023F2
:10A1A0003B61A84BDB7F3B77A64BDB7F002B0CBFD3
:10A1B00001230023DBB27B7797F83A20A3491346AB
:10A1C0005B0013445B000B441B78BB7797F83A2085
:10A1D0009E4913465B0013445B000B4401331B781C
:10A1E000FB7797F83A20994913465B0013445B00CC
:10A1F0000B4402331B7887F8203097F83A209349B4
:10A2000013465B0013445B000B4403331B7887F851
:10A21000213097F83A208D4913465B0013445B00C8
:10A220000B4404331B7887F8223097F83A2087498B
:10A2300013465B0013445B000B4405331B7887F81F
:10A2400023306D4607F114040FCC0FC523682B6033
:10A250003B1D0FCBFFF7FEFDBB6C0133BB64794B9D
:10A2600093F82130012B38BF0123DBB21A46BB6CB7
:10A270009342FFF67BAF33E1724B9B7F032B40F0A1
:10A280002F8100237B6495E000233B6484E06D4BC9
:10A29000DA7F3B6CDBB21344DBB2184600F0C0FC43
:10A2A000034687F83B3097F83B30FF2B70D097F888
:10A2B0003B30654A0121D15408237B610023FB60B8
:10A2C00040F205137B6000233B615E4BDA7F3B6C01
:10A2D000DBB21344DBB23B775A4BDB7F1A463B6C55
:10A2E0001344002B0CBF01230023DBB27B7797F8CC
:10A2F0003B20564913465B0013445B000B441B781C
:10A30000BB7797F83B20514913465B0013445B0031
:10A310000B4401331B78FB7797F83B204B491346DE
:10A320005B0013445B000B4402331B7887F820303A
:10A3300097F83B20454913465B0013445B000B44F0
:10A3400003331B7887F8213097F83B203F491346A9
:10A350005B0013445B000B4404331B7887F8223006
:10A3600097F83B20394913465B0013445B000B44CC
:10A3700005331B7887F823306D4607F114040FCCA2
:10A380000FC523682B603B1D0FCBFFF763FD00E07B
:10A3900000BF3B6C01333B642A4B93F820301A46D4
:10A3A000284BDB7FD31A3A6C9A427FF770AF7B6CF5
:10A3B00001337B64234B93F82130012B38BF0123F9
:10A3C000DBB21A467B6C9342FFF65EAF88E01D4B12
:10A3D0001B7F532B17D11B4B5B7F412B13D1194B89
:10A3E0009B7F062B06D9174B9B7F3C2B28BF3C231A
:10A3F000DBB200E00623164A1370154B1B78184693
:10A4000000F024FD6FE00F4B1B7F432B24D10D4B3D
:10A410005B7F522B20D1012387F8393097F83930F0
:10A42000002B5FD0074B9B7FFF2B05D10022202103
:10A43000084805F085FF55E001222021054805F078
:10A440007FFF4FE000010020C407002058050020D6
:10A450000800002000040048294B1B7F212B42D11B
:10A46000274B5B7F532B3ED1254B9B7F572B3AD1FC
:10A47000234BDB7F552B36D16FF020426FF00A0360
:10A48000C7E90A2307F12803012219461D48FEF7F0
:10A49000E3F9FEF78BFA1C4808F080FB1B4808F034
:10A4A0007DFB1B4808F07AFB1A4808F077FB1A4836
:10A4B00008F074FB194808F071FB642002F054FBAB
:10A4C0004FF000631B687B63154B4FF000629A608E
:10A4D0007B6B3B633B6B83F3088800BFFFF7A4FCF7
:10A4E00000BF00E000BF00F065FC02E000BF00E03C
:10A4F00000BF5037BD46BDE8B04004B0704700BF54
:10A500000001002000F8030880020020CC02002097
:10A510001803002064030020B0030020FC03002087
:10A5200000ED00E080B400AF01224C4B1A60012224
:10A530004A4B5A600122494B9A600122474BDA602C
:10A540000122464B1A610122444B5A610122434BBE
:10A550009A610122414BDA610122404B1A620122C9
:10A560003E4B5A6201223D4B9A6201223B4BDA621A
:10A5700001223A4B1A630122384B5A630122374BAE
:10A580009A630122354BDA63354B00221A70344B43
:10A5900000225A70324B00229A70314BFF22DA703F
:10A5A0002F4BFF221A712E4BFF225A712C4B002287
:10A5B0009A712B4BFF22DA71294B00221A72284B19
:10A5C00000225A72264B96229A72254B0022DA728A
:10A5D000234B00221A73224BFF225A73204B002276
:10A5E0009A731F4B0022DA731D4B00221A741C4B06
:10A5F000FF225A741A4BCD229A74194B0022DA7436
:10A60000174BDC221A75164B5A225A75144B00222E
:10A610009A75134BFF22DA75114BFF221A76104BF5
:10A6200000225A760E4B00229A760D4BFF22DA76E4
:10A630000B4B00221A770A4B0A225A77084BD22278
:10A640009A77074B3222DA77054B822283F8202053
:10A6500000BFBD465DF8047B704700BF28010020A5
:10A660003405002080B483B000AF0346FB80094B63
:10A670001B6800225A6200BF064B1B685A6AFB889F
:10A680009A42F9D300BF00BF0C37BD465DF8047B8A
:10A69000704700BF1803002080B582B000AF78601B
:10A6A0007B68084A934209D10021064809F04AFD17
:10A6B000054B00221A60054B00221A6000BF0837C4
:10A6C000BD4680BD80020020A00100209C0100202A
:10A6D00080B586B000AFF860B9607A603B60BB6857
:10A6E0003A6802FB03F3374A82FB03121A44D21181
:10A6F000DB17D31A1A04FB68396801FB03F33149ED
:10A7000081FB03011944C911DB17CB1A1B021A4440
:10A710007B68396801FB03F32A4981FB0301194473
:10A72000C911DB17CB1A13443B61274B00221A8651
:10A7300017237B611AE001227B6902FA03F31A46B0
:10A740003B691340002B07D07B69C3F117031E4AF6
:10A75000422122F8131006E07B69C3F117031A4A5D
:10A76000212122F813107B69013B7B617B69002B5F
:10A77000E1DA00BF1923144A0021144809F07EFBD6
:10A780000346022BF6D0124B01221A60114B012214
:10A790001A604FF4FA60FFF765FF09E00C4B1B6885
:10A7A000012B05D1094B93F83E30DBB2012B04D0CD
:10A7B000074B1B68002BF1D100E000BF00BF18372A
:10A7C000BD4680BD8180808068010020800200201D
:10A7D0009C010020A001002080B58CB002AFF86081
:10A7E000B9607A6000237B6240E07A6A13465B00BE
:10A7F00013449B001A46FB681A4407F1140307CA66
:10A8000083E80700FB695B003B623B7D18467B7D6C
:10A810001946BB7D1A467B680193BB6800933B6A6F
:10A82000FFF756FF15E0154B1B68002B16D0144B95
:10A830001B68002B14D0114B1B68012B09D10F4B47
:10A840001B68012B05D10F4B93F83E30DBB2012B77
:10A8500008D00A4B1B68012BE5D004E000BF02E0E2
:10A8600000BF00E000BF7B6A01337B627B6AB82BCC
:10A87000BBDD00BF00BF2837BD4680BD9C01002066
:10A88000A00100208002002090B488B000AFF860E2
:10A89000B9607A600023FB61DEE0FA6913465B0071
:10A8A00013449B001A46FB681A4407F1100307CAB9
:10A8B00083E807007B68002B08D1BB68B92203FB43
:10A8C00002F2FB691344694AD35CBB617B68012BCC
:10A8D00008D1BB68B92203FB02F2FB691344644A46
:10A8E000D35CBB617B68022B08D1BB68B92203FB38
:10A8F00002F2FB6913445F4AD35CBB617B68032BA4
:10A9000008D1BB68B92203FB02F2FB6913445A4A1F
:10A91000D35CBB617B68042B08D1BB68B92203FB05
:10A9200002F2FB691344554AD35CBB617B68052B7B
:10A9300008D1BB68B92203FB02F2FB691344504AF9
:10A94000D35CBB617B68062B08D1BB68B92203FBD3
:10A9500002F2FB6913444B4AD35CBB617B68072B53
:10A9600008D1BB68B92203FB02F2FB691344464AD3
:10A97000D35CBB617B68082B08D1BB68B92203FBA1
:10A9800002F2FB691344414AD35CBB617B68092B2B
:10A9900008D1BB68B92203FB02F2FB6913443C4AAD
:10A9A000D35CBB617B680A2B08D1BB68B92203FB6F
:10A9B00002F2FB691344374AD35CBB617B680B2B03
:10A9C00008D1BB68B92203FB02F2FB691344324A87
:10A9D000D35CBB617B680C2B08D1BB68B92203FB3D
:10A9E00002F2FB6913442D4AD35CBB617B680D2BDB
:10A9F00008D1BB68B92203FB02F2FB691344284A61
:10AA0000D35CBB617B680E2B08D1BB68B92203FB0A
:10AA100002F2FB691344234AD35CBB617B680F2BB2
:10AA200008D1BB68B92203FB02F2FB6913441E4A3A
:10AA3000D35CBB61FA6913465B0013449B001A4662
:10AA4000FB6813441C4607F1100393E8070084E8F1
:10AA50000700FB690133FB61FB69B82B7FF71DAF72
:10AA600000BF00BF2037BD4690BC70476C46010850
:10AA700028470108E4470108A04801085C4901088B
:10AA8000184A0108D44A0108904B01084C4C0108AF
:10AA9000084D0108C44D0108804E01083C4F0108D3
:10AAA000F84F0108B45001087051010890B488B003
:10AAB00000AFF860B9607A603B600023FB6127E07B
:10AAC000FA6913465B0013449B001A46FB681A445C
:10AAD00007F1100307CA83E80700BB68DBB23B74C9
:10AAE0007B68DBB27B743B68DBB2BB74FA691346EC
:10AAF0005B0013449B001A46FB6813441C4607F195
:10AB0000100393E8070084E80700FB690133FB6149
:10AB1000FB69B82BD4DD00BF00BF2037BD4690BC19
:10AB200070470000B0B590B006AF3B4B1B7B012BCC
:10AB30001ED1394BDA79384B1A70374B1A7A364BAB
:10AB40005A70354B5A7A344B9A70334B9A7A324B4F
:10AB5000DA70314BDA7A304B1A712F4B01225A716D
:10AB60002D4B5A7B2C4B9A712B4B00221A7323E0EE
:10AB7000294B9B79012B15D1274B00221A70264BAC
:10AB8000FF225A70244B00229A70234B0022DA7065
:10AB9000214B00221A71204B01225A711E4B0022B8
:10ABA0009A7109E01C4B9B79002B05D01A4B9B79BD
:10ABB000013BDAB2184B9A71184B1B78002B27D047
:10ABC00008237B610023FB6040F205137B600023B8
:10ABD0003B6153233B774C237B770023BB770023D8
:10ABE000FB77002387F82030452387F821304F2357
:10ABF00087F82230462387F823306D4607F1140486
:10AC00000FCC0FC523682B603B1D0FCBFFF722F93C
:10AC100000BF2837BD46B0BD240500202005002018
:10AC200080B483B000AF0346FB71FB79002B01D1E8
:10AC3000002322E0FB79132B06D9FB79192B03D8CB
:10AC4000FB79133BDBB218E0FB791B2B06D9FB79B0
:10AC5000502B03D8FB79153BDBB20EE0FB79522B6E
:10AC600003D1FB79163BDBB207E0FB79542B03D110
:10AC7000FB79173BDBB200E0FF2318460C37BD46DB
:10AC80005DF8047B704780B483B000AF0346FB716E
:10AC9000FB79002B01D1002322E0FB79002B06D0A9
:10ACA000FB79062B03D8FB791333DBB218E0FB7971
:10ACB000062B06D9FB793B2B03D8FB791533DBB286
:10ACC0000EE0FB793C2B03D1FB791633DBB207E0B6
:10ACD000FB793D2B03D1FB791733DBB200E0FF2377
:10ACE00018460C37BD465DF8047B704780B582B0CE
:10ACF00000AF7860084803F07DFC074803F07FFB55
:10AD0000054803F064FD0221034803F0CFFF00BFB4
:10AD10000837BD4680BD00BF0802002080B584B062
:10AD200000AF78600023FB607B68A3F597734FF456
:10AD30007A7202FB03F31C4A93420EDC7B68A3F594
:10AD400097734FF47A7202FB03F3184A82FB0312E3
:10AD50001A441212DB17D31A01E04FF47A73FB6026
:10AD60007B68B3F5977F01DA0023FB60042110486C
:10AD700008F0A0F80E4B1B68FA689A637B68B3F57D
:10AD8000CF7F06DC002204214FF0904005F0D8FA76
:10AD900005E0012204214FF0904005F0D1FA00BFF8
:10ADA0001037BD4680BD00BF0D4D07003BC71A8957
:10ADB000B003002080B500AF034A04490448FFF700
:10ADC0000BFD00BF80BD00BF080800200408002064
:10ADD0000C08002080B588B000AF0346FB7107F176
:10ADE000080300221A605A609A60DA601A615A6198
:10ADF00001233B617F237B610423BB610023FB6153
:10AE0000FB79012B02D0022B05D009E00C4BBB6073
:10AE10000123FB6004E00B4BBB600123FB6000BF20
:10AE200007F108031946084802F036FD0346002BD7
:10AE300001D001F0E3F800BF2037BD4680BD00BF60
:10AE40000200300404006008A401002080B483B034
:10AE500000AF0346FB7100BF0C37BD465DF8047BB5
:10AE600070470000F0B5AFB006AF01F008FE00F08B
:10AE700037FC00F0DBFF00F0E7FC00F0A9FF00F07A
:10AE80007FFF00F0DBFE00F073FD00F01DFE00F020
:10AE900069FE00F09DFE00F031FD00F071FCFFF74F
:10AEA00041FB2A4803F093FC0221284803F0FEFEF0
:10AEB0005622274B1A705F22254B5A703222244BA0
:10AEC0009A702E22224BDA703322214B1A714322C0
:10AED0001F4B5A711F4807F0BDFE1F4807F0BAFE0E
:10AEE0001E4807F0B7FE1E4B41F2F4321A601D4BAC
:10AEF0004FF482721A601C4B5B781A461B4B53F856
:10AF000022307B660023C7F89C3042F6E063C7F826
:10AF100098300023C7F894300023C7F890300023FE
:10AF2000C7F88C300023C7F888300023C7F8843076
:10AF300001233B660123C7F880300323FB6700230E
:10AF4000BB67FDF7CBFC00237B671FE008020020F6
:10AF50005805002018030020CC020020B003002078
:10AF6000000000200400002024050020280100200B
:10AF7000BD4A7B6F002102F81310BB4A7B6F5B0058
:10AF8000134400225A707B6F01337B677B6F352B34
:10AF9000EEDDFDF775FE00233B67B44BFF225A70D0
:10AFA0004FF000037B6401222021B14805F0C8F96D
:10AFB000002387F86F3007F13C0300221A605A60C3
:10AFC0004FF00003BB634FF40061AA4805F0D0F9CD
:10AFD000D7F88830002B03D0A44B5B79012B3AD1F2
:10AFE000A24B5B79012B05D10023C7F89C309F4B06
:10AFF00000225A719D4B1B781A469F4B53F8223002
:10B000007B669A4B9B781946984BDB781A46974B90
:10B010001B799A48FFF74AFD944B1B781A46D7F8DC
:10B020009C109648FFF730FCD7F89C3001337A6EBD
:10B0300093FBF2F2796E01FB02F29B1AC7F89C3087
:10B040008F4A90498D48FFF7C7FBD7F89C30002BFB
:10B0500001D1FFF767FD012001F086FDD7F88C30A4
:10B06000002B67D197F86F300133DBB21846FFF73A
:10B07000B1FE854802F00CF96421834802F09EF984
:10B0800097F86F40804802F028FA0246A300A033E8
:10B090003B4443F8642C3B6C1C0A5420FFF7C0FD72
:10B0A00003461946E0B2794A0B465B000B445B004D
:10B0B0001344023302461A703C6C5420FFF7B0FD73
:10B0C00003461946E0B2714A0B465B000B445B0035
:10B0D0001344033302461A70FB6B1C0A5420FFF71B
:10B0E0009FFD03461946E0B2684A0B465B000B44DD
:10B0F0005B001344043302461A70FC6B5420FFF7C4
:10B100008FFD03461946E0B2604A0B465B000B44D4
:10B110005B001344053302461A705B4802F01BF9CA
:10B1200097F86F300133002B03F00103B8BF5B4287
:10B1300087F86F30D7F88830002B00F0528100215B
:10B14000F86FFDF771FD0346002B40F0EE80504A8A
:10B15000BB6F9B0013441B687B6407F14403FB65D2
:10B16000BB6FDBB21433DBB21846FFF759FD034661
:10B1700087F85B3097F85B30464AD35C012B00F0D0
:10B180008B8097F85B20414913465B0013445B00BA
:10B190000B4402331B78190697F85B203B48134693
:10B1A0005B0013445B00034403331B781B04194406
:10B1B00097F85B20354813465B0013445B0003445B
:10B1C00004331B781B02194497F85B202F48134661
:10B1D0005B0013445B00034405331B780B447B6323
:10B1E00007F134031B687B65D7ED117A97ED157A6B
:10B1F000B4EEE77AF1EE10FA40F3828097F85B2024
:10B20000FB6D1878214913465B0013445B000B4427
:10B21000023302461A7097F85B20FB6D58781B4981
:10B2200013465B0013445B000B44033302461A7061
:10B2300097F85B20FB6D9878144913465B00134424
:10B240005B000B44043302461A7097F85B20FB6DD9
:10B25000D8780E4913465B0013445B000B4405335A
:10B2600002461A704CE000BFB810002024050020F0
:10B270000004004800080048280100200C080020B5
:10B280000808002004080020A40100205805002020
:10B29000C0000020C407002097F85B20FB6D1878E1
:10B2A000804913465B0013445B000B4402330246A3
:10B2B0001A7097F85B20FB6D58787A4913465B004B
:10B2C00013445B000B44033302461A7097F85B206B
:10B2D000FB6D9878734913465B0013445B000B4485
:10B2E000043302461A7097F85B20FB6DD8786D49DD
:10B2F00013465B0013445B000B44053302461A708F
:10B3000097F85B30684A0021D154FB6FBB67FB6F35
:10B310005A1C664B83FB0231D317C91A0B465B00DC
:10B320000B445B00D31AFB6702E03B6F01333B67C2
:10B330003B6F0A2B55DDBB6FDBB21433DBB2184613
:10B34000FFF76EFC034687F853300121F86FFDF7D5
:10B350006BFC07F13803FB6497F85320FB6C1878FB
:10B36000504913465B0013445B000B440233024612
:10B370001A7097F85320FB6C58784A4913465B00C3
:10B3800013445B000B44033302461A7097F85320B2
:10B39000FB6C9878434913465B0013445B000B44F5
:10B3A000043302461A7097F85320FB6CD8783D4955
:10B3B00013465B0013445B000B44053302461A70CE
:10B3C000FB6FBB67FB6F5A1C384B83FB0231D317F3
:10B3D000C91A0B465B000B445B00D31AFB670023C2
:10B3E0003B67012001F0C0FBD7F894300133304AAD
:10B3F0001268013293FBF2F101FB02F29B1AC7F8CB
:10B400009430D7F8903001332A4A1268013293FB06
:10B41000F2F101FB02F29B1AC7F89030D7F888309E
:10B420000133254A5278023293FBF2F101FB02F21A
:10B430009B1AC7F88830D7F8803001331F4A82FB47
:10B4400003129111DA178A1A4FF47A7101FB02F292
:10B450009B1AC7F88030D7F880300133184A82FB36
:10B4600003121111DA178A1A322101FB02F29B1A18
:10B47000C7F88C30D7F89830002B04DBD7F8983019
:10B48000013BC7F898300023BB66A6E00D4ABB6EAF
:10B4900032F81330002B19D10B4ABB6E012122F870
:10B4A000131097E058050020C4070020ABAAAA2A71
:10B4B000000000200400002024050020D34D62106D
:10B4C0001F85EB51CC060020480700207B4ABB6E4D
:10B4D00032F8133001337A49BA6E31F8122093FBF7
:10B4E000F2F101FB02F29B1A99B2744ABB6E22F888
:10B4F0001310724ABB6E32F81330002B6AD1714AB6
:10B50000BB6E134401221A70BB6EDBB21846FFF704
:10B51000BAFB034687F84B3008237B610023FB60AE
:10B5200040F205137B6000233B6197F84B303B777B
:10B5300097F84B30002B0CBF01230023DBB27B7745
:10B540006149BA6E13465B0013445B000B441B78E1
:10B55000BB775D49BA6E13465B0013445B000B4436
:10B5600001331B78FB775849BA6E13465B001344CE
:10B570005B000B4402331B7887F820305249BA6EC7
:10B5800013465B0013445B000B4403331B7887F8BE
:10B5900021304D49BA6E13465B0013445B000B44E7
:10B5A00004331B7887F822304749BA6E13465B0094
:10B5B00013445B000B4405331B7887F823306D463A
:10B5C00007F114040FCC0FC523682B603B1D0FCB74
:10B5D000FEF740FCBB6E0133BB66BB6E3D2B7FF7B5
:10B5E00055AF3B6E002B18D1D7F88400FEF7DCFB7B
:10B5F000D7F884305A1C354B83FB0213134459117E
:10B60000D317C91A0B46DB000B449B000B44D31A1B
:10B61000C7F88430012001F0A7FA40214FF0904094
:10B6200004F076FE0346002B0ED15220FFF7F8FA05
:10B6300003461946244A0B465B000B445B00134447
:10B640000533FF221A700DE05220FFF7E9FA034696
:10B6500019461D4A0B465B000B445B00134405333F
:10B6600000221A70D7F88030002B0CD14FF0000266
:10B670004FF00003C7E90A2307F128030122194606
:10B680001348FDF7E9F8134B1B78012B7FF49BACB3
:10B69000104B00221A70104E6D4606F110040FCCAC
:10B6A0000FC523682B6096E80F00FEF737FC0B4BA5
:10B6B0001B681846FFF732FB85E400BF48070020EF
:10B6C000CC060020C407002058050020A7C867DD6D
:10B6D00000F80308D8000020000100202401002009
:10B6E00080B596B000AF07F114034422002118463C
:10B6F00008F094FF3B4600221A605A609A60DA60B4
:10B700001A614FF4007004F073FE0346002B01D061
:10B7100000F074FC01237B614FF48033BB61022392
:10B72000FB6303233B6405237B642023BB64072363
:10B73000FB6402233B6502237B6507F11403184673
:10B7400004F0ACFE0346002B01D000F057FC0F23A1
:10B750003B6003237B600023BB600023FB6000236E
:10B760003B613B460421184605F0ACFA0346002B2A
:10B7700001D000F043FC00BF5837BD4680BD00003B
:10B7800080B586B000AF3B4600221A605A609A60CE
:10B79000DA601A615A61294B294A1A60274B002244
:10B7A0005A60264B00229A60244B0022DA60234B19
:10B7B00000221A61214B04225A61204B00221A7682
:10B7C0001E4B00225A761D4B0122DA611B4B0022D0
:10B7D00083F82020194B00229A62184B0022DA626B
:10B7E000164B002283F83020144B00225A63134B6F
:10B7F000002283F83820114801F002FC0346002B98
:10B8000001D000F0FBFB0F4B3B6006237B60012364
:10B81000BB607F23FB6004233B6100237B613B46CD
:10B820001946064802F038F80346002B01D000F014
:10B83000E5FB00BF1837BD4680BD00BFA401002056
:10B84000000004500200300480B58AB000AF294BDC
:10B85000294A1A60274B10225A60264B00229A6010
:10B86000244B0022DA60234B4FF480321A61214BC3
:10B870004FF480125A611F4B01221A761D4B012290
:10B880005A761C4B01229A761A4B0122DA76194B12
:10B8900001221A77174B01225A77164802F0AFFDA2
:10B8A0000346002B01D000F0A9FB0C237B61002391
:10B8B000BB6100233B614FF402533B6000237B607C
:10B8C0004FF4FF53BB600023FB600123FB610123A6
:10B8D0003B620C237B623B461946064802F0ADFEF4
:10B8E0000346002B01D000F089FB00BF2837BD467E
:10B8F00080BD00BF080200200064004080B500AF9A
:10B90000184B194A1A60174B184A5A60154B0022F7
:10B910009A60144B0222DA60124B01221A61114B19
:10B9200000225A610F4B00229A610E4B0022DA610D
:10B930000C4B00221A620B4B00225A62094B002268
:10B940009A62084B0022DA62064B48F2D0321A6340
:10B95000044805F0ADFE0346002B01D000F04EFB7D
:10B9600000BF80BD3002002000580040EC9C9010C9
:10B9700080B59AB000AF07F1580300221A605A60F0
:10B980009A60DA6007F14C0300221A605A609A60EC
:10B9900007F1300300221A605A609A60DA601A6177
:10B9A0005A619A613B1D2C220021184608F036FE90
:10B9B000434B444A1A60424B00225A60404B0022DB
:10B9C0009A603F4B6322DA603D4B00221A613C4B88
:10B9D00000225A613A4B00229A61394807F087F8F1
:10B9E0000346002B01D000F009FB4FF48053BB65E8
:10B9F00007F158031946324807F06EFD0346002B45
:10BA000001D000F0FBFA2E4807F0F3F90346002BB3
:10BA100001D000F0F3FA0023FB6400233B65002310
:10BA20007B6507F14C031946254808F027FC0346BF
:10BA3000002B01D000F0E2FA60233B6300237B631C
:10BA40000023BB630023FB6300233B6400237B6470
:10BA50000023BB6407F1300300221946184807F0A1
:10BA600027FC0346002B01D000F0C8FA00237B60BE
:10BA70000023BB600023FB6000233B6100237B614C
:10BA80004FF40053BB610023FB6100233B624FF086
:10BA900000737B620023BB620023FB623B1D1946DF
:10BAA000074808F051FC0346002B01D000F0A6FA2D
:10BAB000034800F09DFD00BF6837BD4680BD00BF54
:10BAC00080020020002C014080B588B000AF07F153
:10BAD000100300221A605A609A60DA603B1D00224F
:10BAE0001A605A609A601E4B4FF080421A601C4BDD
:10BAF00000225A601A4B00229A60194B4FF0FF3215
:10BB0000DA60174B00221A61154B00229A61144823
:10BB100006F0EDFF0346002B01D000F06FFA4FF462
:10BB200080533B6107F1100319460D4807F0D4FC20
:10BB30000346002B01D000F061FA00237B60002354
:10BB4000FB603B1D1946064808F098FB0346002B96
:10BB500001D000F053FA00BF2037BD4680BD00BFC2
:10BB6000CC02002080B584B000AF3B1D00221A60DB
:10BB70005A609A60144B154A1A60134B00225A609F
:10BB8000114B00229A60104B4FF6FF72DA600E4B99
:10BB900000229A610C4806F0AAFF0346002B01D050
:10BBA00000F02CFA00237B600023FB603B1D19464C
:10BBB000054808F063FB0346002B01D000F01EFA95
:10BBC00000BF1037BD4680BD1803002000100040A4
:10BBD00080B584B000AF3B1D00221A605A609A60A5
:10BBE000144B154A1A60134B02225A60114B002263
:10BBF0009A60104B4FF6FF72DA600E4B00229A618A
:10BC00000C4806F074FF0346002B01D000F0F6F953
:10BC100000237B600023FB603B1D1946054808F0AC
:10BC20002DFB0346002B01D000F0E8F900BF1037D0
:10BC3000BD4680BD640300200014004080B59AB06A
:10BC400000AF07F1580300221A605A609A60DA6068
:10BC500007F14C0300221A605A609A6007F1300322
:10BC600000221A605A609A60DA601A615A619A6119
:10BC70003B1D2C220021184608F0D0FC3E4B3F4AC9
:10BC80001A603D4B4FF416725A603B4B00229A608B
:10BC9000394B4FF47A72DA60374B00221A61364B17
:10BCA00000225A61344B00229A61334806F01FFF8C
:10BCB0000346002B01D000F0A1F94FF48053BB657F
:10BCC00007F1580319462C4807F006FC0346002BE1
:10BCD00001D000F093F9284807F08BF80346002BB9
:10BCE00001D000F08BF90023FB6400237B6507F192
:10BCF0004C031946204808F0C1FA0346002B01D036
:10BD000000F07CF960233B6300237B630023BB636B
:10BD10000023FB6300233B6400237B640023BB649C
:10BD200007F1300304221946134807F0C1FA03460D
:10BD3000002B01D000F062F900237B600023BB6080
:10BD40000023FB6000233B6100237B614FF4005321
:10BD5000BB610023FB623B1D1946074808F0F4FA5B
:10BD60000346002B01D000F049F9034800F040FCE5
:10BD700000BF6837BD4680BDB003002000400140D1
:10BD800080B500AF104B114A1A600F4B4FF416727A
:10BD90005A600D4B00229A600B4B4FF6FF72DA602F
:10BDA000094B00221A61084B00225A61064B0022FF
:10BDB0009A61054806F09BFE0346002B01D000F077
:10BDC0001DF900BF80BD00BFFC03002000440140FE
:10BDD00080B582B000AF144B9B6C134A43F0010353
:10BDE0009364114B9B6C03F001037B607B68002222
:10BDF00000210C2003F0A5FA0C2003F0BEFA00226B
:10BE000000210D2003F09DFA0D2003F0B6FA002268
:10BE100000210F2003F095FA0F2003F0AEFA00BFC7
:10BE20000837BD4680BD00BF0010024080B58AB013
:10BE300000AF07F1140300221A605A609A60DA60BA
:10BE40001A616B4BDB6C6A4A43F08003D364684B26
:10BE5000DB6C03F080033B613B69654BDB6C644A40
:10BE600043F00403D364624BDB6C03F00403FB6018
:10BE7000FB685F4BDB6C5E4A43F00103D3645C4BB1
:10BE8000DB6C03F00103BB60BB68594BDB6C584AA9
:10BE900043F00203D364564BDB6C03F002037B6078
:10BEA0007B68002204214FF0904004F049FA002200
:10BEB0004FF400614F4804F043FA002220214E481D
:10BEC00004F03EFA04237B610123BB610023FB6184
:10BED00000233B6207F1140319464FF0904003F032
:10BEE000C3FF40237B610023BB610223FB6107F199
:10BEF000140319464FF0904003F0B6FF30237B61E6
:10BF00004FF44413BB610023FB6107F1140319468E
:10BF1000384803F0A9FF40F207437B614FF4441314
:10BF2000BB610023FB6107F114031946324803F09B
:10BF30009BFF4FF410437B610023BB610223FB6135
:10BF400007F1140319462C4803F08EFF4FF40063E9
:10BF50007B610123BB610023FB6100233B6207F18E
:10BF600014031946234803F07FFF20237B6101233C
:10BF7000BB610023FB6100233B6207F114031946F8
:10BF80001D4803F071FF00220021062003F0D9F9BB
:10BF9000062003F0F2F900220021072003F0D1F976
:10BFA000072003F0EAF900220021082003F0C9F974
:10BFB000082003F0E2F9002200210A2003F0C1F971
:10BFC0000A2003F0DAF900220021172003F0B9F962
:10BFD000172003F0D2F900220021282003F0B1F944
:10BFE000282003F0CAF900BF2837BD4680BD00BF36
:10BFF00000100240000800480004004880B400AF70
:10C0000072B600BFFEE7000080B483B000AF0F4BF4
:10C010001B6E0E4A43F0010313660C4B1B6E03F0BC
:10C0200001037B607B68094B9B6D084A43F080539A
:10C030009365064B9B6D03F080533B603B6800BFEC
:10C040000C37BD465DF8047B704700BF001002400E
:10C0500080B5A0B000AF786007F16C0300221A60D1
:10C060005A609A60DA601A6107F110035C220021BD
:10C07000184608F0D3FA7B681B68214A93423BD1EB
:10C080004FF480433B614FF040533B6607F1100390
:10C09000184605F003F80346002B01D0FFF7AEFF6A
:10C0A000184BDB6C174A43F40053D364154BDB6C1D
:10C0B00003F40053FB60FB68124BDB6C114A43F046
:10C0C0000403D3640F4BDB6C03F00403BB60BB6859
:10C0D0000323FB660B233B6700237B6707F16C039D
:10C0E0001946094803F0C0FE00220021122003F087
:10C0F00028F9122003F041F900BF8037BD4680BD0A
:10C1000000000450001002400008004880B58AB0CA
:10C1100000AF786007F1140300221A605A609A6039
:10C12000DA601A617B681B682A4A93424ED12A4B17
:10C130009B6D294A43F000739365274B9B6D03F079
:10C1400000733B613B69244BDB6C234A43F00103E2
:10C15000D364214BDB6C03F00103FB60FB681E4BD7
:10C16000DB6C1D4A43F00203D3641B4BDB6C03F012
:10C170000203BB60BB684FF480537B610223BB6149
:10C180000023FB6103233B6209237B6207F1140355
:10C1900019464FF0904003F067FE4FF480737B61C7
:10C1A0000223BB610023FB6103233B6209237B6203
:10C1B00007F114031946094803F056FE0022002136
:10C1C000142003F0BEF8142003F0D7F800BF28377E
:10C1D000BD4680BD006400400010024000040048DD
:10C1E00080B582B000AF78607B681B680D4A9342CF
:10C1F00013D10D4B9B6D0C4A23F0007393654FF4E4
:10C2000080514FF0904003F0A9FF4FF48071074830
:10C2100003F0A4FF142003F0BEF800BF0837BD46AA
:10C2200080BD00BF006400400010024000040048D0
:10C2300080B5A0B000AF786007F16C0300221A60EF
:10C240005A609A60DA601A6107F110035C220021DB
:10C25000184608F0E3F97B681B68274A934246D1E9
:10C2600080233B6100237B6407F11003184604F030
:10C2700015FF0346002B01D0FFF7C0FE1F4BDB6C00
:10C280001E4A43F00203D3641C4BDB6C03F0020331
:10C29000FB60FB684FF4C043FB6612233B6700233F
:10C2A0007B670323BB670423FB6707F16C03194615
:10C2B000134803F0D9FD114B9B6D104A43F48003E2
:10C2C00093650E4B9B6D03F48003BB60BB6800223B
:10C2D0000021212003F035F8212003F04EF8002240
:10C2E0000021222003F02DF8222003F046F800BFA1
:10C2F0008037BD4680BD00BF00580040001002409E
:10C300000004004880B582B000AF78607B681B688D
:10C310000E4A934215D10E4B9B6D0D4A23F48003B8
:10C3200093654FF400510B4803F018FF4FF4804120
:10C33000084803F013FF212003F02DF8222003F01A
:10C340002AF800BF0837BD4680BD00BF0058004036
:10C35000001002400004004880B588B000AF78604B
:10C360007B681B68964A934247D1964B1B6E954A51
:10C3700043F400631366934B1B6E03F40063FB618D
:10C38000FB69914B914A1A608F4B07225A608E4B82
:10C3900010229A608C4B0022DA608B4B80221A614B
:10C3A000894B4FF480725A61874B4FF480629A61D7
:10C3B000854B0022DA61844B00221A62824803F026
:10C3C00005F80346002B01D0FFF718FE7B687E4A74
:10C3D0005A627D4A7B68936200220021182002F095
:10C3E000B0FF182002F0C9FF00220021192002F03E
:10C3F000A8FF192002F0C1FFDEE07B681B68B3F1E3
:10C40000804F0CD16F4B9B6D6E4A43F001039365D7
:10C410006C4B9B6D03F00103BB61BB69CCE07B6897
:10C420001B686B4A93420CD1664B9B6D654A43F087
:10C4300010039365634B9B6D03F010037B617B6975
:10C44000BAE07B681B68634A934214D15D4B9B6DD5
:10C450005C4A43F0200393655A4B9B6D03F0200325
:10C460003B613B6900220021372002F06AFF372040
:10C4700002F083FFA0E07B681B68574A934251D1CA
:10C48000504B1B6E4F4A43F4803313664D4B1B6E6B
:10C4900003F48033FB60FB68504B514A1A604F4BEA
:10C4A00007225A604D4B10229A604C4B0022DA60F2
:10C4B0004A4B80221A61494B4FF480725A61474BB4
:10C4C0004FF480629A61454B0022DA61434B0022AF
:10C4D0001A62424802F07AFF0346002B01D0FFF7B0
:10C4E0008DFD7B683D4A5A623C4A7B6893627B685B
:10C4F0003A4A1A62394A7B6893627B68374A9A6380
:10C50000364A7B6893627B68344A5A63334A7B6855
:10C51000936200220021182002F013FF182002F07D
:10C520002CFF49E07B681B682E4A934244D1254B7F
:10C530001B6E244A43F400331366224B1B6E03F434
:10C540000033BB60BB68284B284A1A60264B042284
:10C550005A60254B10229A60234B0022DA60224B4E
:10C5600080221A61204B4FF480725A611E4B4FF4A7
:10C5700080629A611C4B0022DA611B4B00221A6216
:10C58000194802F023FF0346002B01D0FFF736FDC8
:10C590007B68154A5A62144A7B6893627B68124A28
:10C5A0001A62114A7B68936200220021192002F06E
:10C5B000C8FE192002F0E1FE00BF2037BD4680BD55
:10C5C000002C014000100240480400201C000240E2
:10C5D0000010004000140040004001409004002082
:10C5E0005800024000440140D804002030000240BE
:10C5F00080B58AB000AF786007F1140300221A609A
:10C600005A609A60DA601A617B681B68234A934219
:10C610001DD1234BDB6C224A43F00103D364204B32
:10C62000DB6C03F001033B613B6980237B610223E8
:10C63000BB610023FB6100233B6201237B6207F1A6
:10C64000140319464FF0904003F00EFC21E07B6884
:10C650001B68144A93421CD1114BDB6C104A43F007
:10C660000103D3640E4BDB6C03F00103FB60FB683A
:10C6700008237B610223BB610023FB6100233B6233
:10C680000E237B6207F1140319464FF0904003F02C
:10C69000EBFB00BF2837BD4680BD00BF002C01402A
:10C6A000001002400040014080B582B000AF7860C9
:10C6B0007B681B68374A93420BD1374B1B6E364A57
:10C6C00023F4006313667B685B6A184602F036FF4A
:10C6D0005BE07B681B68B3F1804F06D12E4B9B6DEE
:10C6E0002D4A23F0010393654FE07B681B682B4ABA
:10C6F000934206D1284B9B6D274A23F01003936584
:10C7000043E07B681B68264A934209D1224B9B6D0C
:10C71000214A23F020039365372002F03CFE34E0E9
:10C720007B681B681F4A93421AD11B4B1B6E1A4A27
:10C7300023F4803313667B685B6A184602F0FEFEC2
:10C740007B681B6A184602F0F9FE7B689B6B1846F3
:10C7500002F0F4FE7B685B6B184602F0EFFE14E01B
:10C760007B681B68104A93420FD10B4B1B6E0A4A21
:10C7700023F4003313667B685B6A184602F0DEFE22
:10C780007B681B6A184602F0D9FE00BF0837BD4619
:10C7900080BD00BF002C014000100240001000408E
:10C7A00000140040004001400044014080B400AF4C
:10C7B000FEE7000080B582B000AF00237B607B689D
:10C7C000002B04D14FF400610A4803F0D1FD012091
:10C7D00000F0CAF97B680133074A82FB0312111289
:10C7E000DA178A1A4FF4487101FB02F29B1A7B6038
:10C7F000E5E700BF000800481F85EB5180B400AF9B
:10C80000FEE7000080B582B000AF00237B607B684C
:10C81000002B04D14FF400610A4803F0A9FD012068
:10C8200000F0A2F97B680133074A82FB0312111260
:10C83000DA178A1A4FF4487101FB02F29B1A7B60E7
:10C84000E5E700BF000800481F85EB5180B582B0C6
:10C8500000AF00237B607B68002B04D14FF40061A4
:10C860000A4803F085FD012000F07EF97B68013362
:10C87000074A82FB03121112DA178A1A4FF4487121
:10C8800001FB02F29B1A7B60E5E700BF000800484D
:10C890001F85EB5180B400AF00BFBD465DF8047B3F
:10C8A000704780B400AF00BFBD465DF8047B7047A1
:10C8B00080B400AF00BFBD465DF8047B704780B513
:10C8C00000AF00F031F900BF80BD80B500AF01209E
:10C8D00003F068FD00BF80BD80B500AF022003F00B
:10C8E00061FD00BF80BD80B500AF042003F05AFD9C
:10C8F00000BF80BD80B500AF102003F053FD00BF26
:10C9000080BD000080B500AF024802F04AFF00BFC2
:10C9100080BD00BF4804002080B500AF024802F08F
:10C9200040FF00BF80BD00BFD804002080B500AF2D
:10C93000024802F036FF00BF80BD00BF9004002017
:10C9400080B500AF024800F0D5FD00BF80BD00BF3C
:10C95000A401002080B500AF0348FEF7C7F90248E4
:10C9600002F0CAF900BF80BD0802002080B500AF08
:10C97000202003F017FD00BF80BD000080B500AF90
:10C98000034806F075FB034806F072FB00BF80BD4C
:10C9900080020020B003002080B500AF034806F0FD
:10C9A00067FB034806F064FB00BF80BD80020020E7
:10C9B000FC03002080B500AF024805F0A6F900BFD7
:10C9C00080BD00BF3002002080B500AF024805F0F6
:10C9D0004AFA00BF80BD00BF3002002080B500AF22
:10C9E0004FF4806003F0DEFC00BF80BD80B500AF77
:10C9F000024806F03DFB00BF80BD00BF640300207D
:10CA000080B400AF074B084A9A60064BD3F88830D1
:10CA1000044A43F47003C2F8883000BFBD465DF895
:10CA2000047B704700ED00E000800008DFF834D0A0
:10CA3000FFF7E6FF0C480D490D4A002302E0D458E9
:10CA4000C4500433C4188C42F9D30A4A0A4C002358
:10CA500001E013600432A242FBD307F0BBFDFEF7F6
:10CA600001FAFEE70000012000000020380000204D
:10CA7000745201083800002028110020FEE780B51C
:10CA800082B000AF0023FB71032002F04FFC0F20A7
:10CA900000F00EF80346002B02D00123FB7101E0E9
:10CAA000FFF7B2FAFB7918460837BD4680BD000093
:10CAB00080B584B000AF78600023FB73174B1B7800
:10CAC000002B23D0164B1A68144B1B7819464FF4D1
:10CAD0007A73B3FBF1F3B2FBF3F3184602F069FC8F
:10CAE0000346002B0FD17B680F2B09D800227968F1
:10CAF0004FF0FF3002F025FC0A4A7B68136007E024
:10CB00000123FB7304E00123FB7301E00123FB73AA
:10CB1000FB7B18461037BD4680BD00BF14000020C7
:10CB20000C0000201000002080B400AF064B1B78E2
:10CB30001A46064B1B681344044A136000BFBD46E7
:10CB40005DF8047B704700BF140000202411002012
:10CB500080B400AF034B1B681846BD465DF8047BEC
:10CB6000704700BF2411002080B584B000AF78600A
:10CB7000FFF7EEFFB8607B68FB60FB68B3F1FF3F37
:10CB800005D00A4B1B781A46FB681344FB6000BFB4
:10CB9000FFF7DEFF0246BB68D31AFA689A42F7D85D
:10CBA00000BF00BF1037BD4680BD00BF140000208D
:10CBB00080B483B000AF786039607B689B6823F4F1
:10CBC0007C123B681A437B689A6000BF0C37BD46F5
:10CBD0005DF8047B704780B483B000AF7860396043
:10CBE0007B689B6823F0E0723B681A437B689A601D
:10CBF00000BF0C37BD465DF8047B704780B483B03E
:10CC000000AF78607B689B6803F0E07318460C37D0
:10CC1000BD465DF8047B704780B487B000AFF86014
:10CC2000B9607A603B60FB6860331A46BB689B0062
:10CC300013447B617B691A68084B13407A6802F0E1
:10CC4000F8413A680A43134343F000427B691A6093
:10CC500000BF1C37BD465DF8047B704700F0FF0342
:10CC600080B485B000AF786039607B6860331A4665
:10CC70003B689B001344FB60FB681B6803F0F843B0
:10CC800018461437BD465DF8047B704780B487B002
:10CC900000AFF860B9607A60FB6860331A46BB6821
:10CCA0009B0013447B617B691B6823F000427B6817
:10CCB0001A437B691A6000BF1C37BD465DF8047BD0
:10CCC000704780B483B000AF78607B68DB6803F4A2
:10CCD0004063002B01D1012300E0002318460C37EC
:10CCE000BD465DF8047B704780B487B000AFF86044
:10CCF000B9607A60FB6830331A46BB681B0A9B0038
:10CD000003F00C0313447B617B691A68BB6803F072
:10CD10001F031F2101FA03F3DB431A407B689B0EBC
:10CD200003F01F01BB6803F01F0301FA03F31A436A
:10CD30007B691A6000BF1C37BD465DF8047B7047F5
:10CD400080B483B000AF78607B68DB6C03F0C00315
:10CD5000002B01D1012300E0002318460C37BD460B
:10CD60005DF8047B704780B487B000AFF860B960AD
:10CD70007A60FB6814331A46BB685B0E9B0003F0B5
:10CD8000040313447B617B691A68BB681B0D03F0C5
:10CD90001F03072101FA03F3DB431A40BB681B0D95
:10CDA00003F01F03796801FA03F31A437B691A60E1
:10CDB00000BF1C37BD465DF8047B704780B485B06A
:10CDC00000AFF860B9607A60FB68D3F8B020BB6848
:10CDD000C3F31203DB431A407B6803F018030849CE
:10CDE000D940BB680B40C3F312031A43FB68C3F876
:10CDF000B02000BF1437BD465DF8047B704700BF0C
:10CE0000FFFF070080B483B000AF78607B689B6849
:10CE100023F0204323F03F037A68936000BF0C3770
:10CE2000BD465DF8047B704780B483B000AF786086
:10CE30007B689B6803F00053B3F1005F01D10123CD
:10CE400000E0002318460C37BD465DF8047B7047B0
:10CE500080B483B000AF78607B689B6823F0104398
:10CE600023F03F0343F080527B689A6000BF0C3789
:10CE7000BD465DF8047B704780B483B000AF786036
:10CE80007B689B6803F08053B3F1805F01D101237D
:10CE900000E0002318460C37BD465DF8047B704760
:10CEA00080B483B000AF78607B689B6823F0004358
:10CEB00023F03F0343F001027B689A6000BF0C3708
:10CEC000BD465DF8047B704780B483B000AF7860E6
:10CED0007B689B6823F0004323F03F0343F002028A
:10CEE0007B689A6000BF0C37BD465DF8047B7047D5
:10CEF00080B483B000AF78607B689B6803F0010367
:10CF0000012B01D1012300E0002318460C37BD4658
:10CF10005DF8047B704780B483B000AF78607B68B5
:10CF20009B6803F00203022B01D1012300E00023E0
:10CF300018460C37BD465DF8047B704780B483B05B
:10CF400000AF78607B689B6823F0004323F03F03C9
:10CF500043F004027B689A6000BF0C37BD465DF861
:10CF6000047B704780B483B000AF78607B689B68B7
:10CF700023F0004323F03F0343F010027B689A60E4
:10CF800000BF0C37BD465DF8047B704780B483B0AA
:10CF900000AF78607B689B6803F00403042B01D129
:10CFA000012300E0002318460C37BD465DF8047BE2
:10CFB000704780B483B000AF78607B689B6823F0D3
:10CFC000004323F03F0343F020027B689A6000BFD8
:10CFD0000C37BD465DF8047B704780B483B000AF6A
:10CFE00078607B689B6803F00803082B01D101235C
:10CFF00000E0002318460C37BD465DF8047B7047FF
:10D0000080B588B000AF78600023FB770023BB6059
:10D010007B68002B01D101232CE17B681B69002B6D
:10D020007B685B6D002B09D17868FFF711F87B688E
:10D0300000229A657B68002283F850207B681B6879
:10D040001846FFF7F1FE0346002B04D07B681B68EF
:10D050001846FFF7D7FE7B681B681846FFF70CFFE2
:10D060000346002B15D17B681B681846FFF7F0FEBE
:10D07000824B1B689B09824AA2FB03239B09013355
:10D080005B00BB6002E0BB68013BBB60BB68002B80
:10D09000F9D17B681B681846FFF7EEFE0346002BAC
:10D0A0000DD17B685B6D43F010027B685A657B682D
:10D0B0009B6D43F001027B689A650123FB777B68D7
:10D0C0001B681846FFF762FF78617B685B6D03F0B1
:10D0D0001003002B40F0C5807B69002B40F0C1801D
:10D0E0007B685B6D23F4817343F002027B685A65B1
:10D0F0007B681B681846FFF7FBFE0346002B0BD12D
:10D100006048FFF7F5FE0346002B05D17B685B689E
:10D1100019465D48FFF74CFD7B685B7E5A037B68D0
:10D120005B6B1A437B68DB681A437B689B681A4316
:10D130007B6893F820301B041343BB617B6893F832
:10D140002030012B06D17B685B6A013B5B04BA6926
:10D150001343BB617B689B6A002B09D07B689B6A89
:10D1600003F470727B68DB6A1343BA691343BB61D3
:10D170007B681B68DA68454B13407A681268B969A6
:10D180000B43D3607B681B681846FFF7FFFE3861CE
:10D190007B681B681846FFF720FFF8603B69002B8F
:10D1A0003DD1FB68002B3AD17B681B7E9A037B68DC
:10D1B00093F830305B001343BB617B681B68DB680E
:10D1C00023F4804323F002037A681268B9690B43A1
:10D1D000D3607B6893F83830012B18D17B681B68CB
:10D1E0001B6923F4FF6323F004037A68D16B7A6828
:10D1F000126C11437A68526C11437A68926C0A433C
:10D200001A437B681B6842F001021A6107E07B68E1
:10D210001B681A697B681B6822F001021A617B682F
:10D220001B69012B0CD17B681B681B6B23F00F0162
:10D230007B68DB695A1E7B681B680A431A6307E038
:10D240007B681B681A6B7B681B6822F00F021A63ED
:10D250007B685B6D23F0030343F001027B685A6532
:10D2600007E07B685B6D43F010027B685A65012321
:10D27000FB77FB7F18462037BD4680BD0C000020A1
:10D28000632D3E05000004500003045007C0F0FF6A
:10D2900080B584B000AF78607B681B681846FFF7E4
:10D2A00075FE0346002B4FD17B6893F85030012B5D
:10D2B00001D102234BE07B68012283F8502078687B
:10D2C00000F086FF0346FB73FB7B002B37D17B68A6
:10D2D0005B6D23F4706323F0010343F480727B6879
:10D2E0005A657B685B6D03F48053B3F5805F06D1AC
:10D2F0007B689B6D23F006027B689A6502E07B6881
:10D3000000229A657B681B681C221A607B680022D9
:10D3100083F850207B681B68DB6803F00073002BE8
:10D3200007D07B685B6D23F4405343F480527B68E5
:10D330005A657B681B681846FFF700FE06E07B68AD
:10D34000002283F8502001E00223FB73FB7B184688
:10D350001037BD4680BD80B584B000AF78607B6873
:10D3600093F85030012B01D1022323E07B68012286
:10D3700083F850200321786800F06EFE0346FB73AB
:10D38000FB7B002B11D1786800F0A8FF0346FB73EC
:10D39000FB7B002B09D17B685B6D23F4885323F062
:10D3A000010343F001027B685A657B68002283F821
:10D3B0005020FB7B18461037BD4680BD80B586B037
:10D3C00000AF786039607B685B69082B02D1082365
:10D3D0007B6110E07B681B68DB6803F00103002BB6
:10D3E00007D07B685B6D43F020027B685A650123A0
:10D3F0006FE004237B61FFF7ABFB386121E03B6802
:10D40000B3F1FF3F1DD0FFF7A3FB02463B69D31AE0
:10D410003A689A4202D33B68002B12D17B681B68A2
:10D420001A687B691340002B0BD17B685B6D43F05E
:10D4300004027B685A657B68002283F8502003232E
:10D4400047E07B681B681A687B691340002BD6D0C5
:10D450007B685B6D43F400727B685A657B681B6870
:10D460001846FFF72EFC0346002B1CD07B685B7E22
:10D47000002B18D17B681B681B6803F00803082B7E
:10D4800011D17B685B6D23F480727B685A657B6881
:10D490005B6D03F48053002B05D17B685B6D43F01B
:10D4A00001027B685A657B681B68DB68FB607B69EF
:10D4B000082B04D17B681B6808221A6008E0FB680F
:10D4C00003F48043002B03D17B681B680C221A6095
:10D4D000002318461837BD4680BD80B483B000AF26
:10D4E00078607B681B681B6C18460C37BD465DF87E
:10D4F000047B704780B588B000AF78600023FB6183
:10D500007B681B681B68BB617B681B685B687B6111
:10D51000BB6903F00203002B17D07B6903F0020301
:10D52000002B12D07B685B6D03F01003002B05D13C
:10D530007B685B6D43F400627B685A65786800F035
:10D5400054FF7B681B6802221A60BB6903F0040366
:10D55000002B04D07B6903F00403002B09D1BB69C5
:10D5600003F00803002B5ED07B6903F00803002B57
:10D5700059D07B685B6D03F01003002B05D17B68ED
:10D580005B6D43F400727B685A657B681B681846C4
:10D59000FFF797FB0346002B3ED07B681B68DB68D8
:10D5A0003B613B6903F40053002B35D17B681B685A
:10D5B0001B6803F00803082B2ED17B681B681846F4
:10D5C000FFF7E4FC0346002B1AD17B681B685A68FE
:10D5D0007B681B6822F00C025A607B685B6D23F449
:10D5E00080727B685A657B685B6D03F48053002B07
:10D5F00012D17B685B6D43F001027B685A650BE0DA
:10D600007B685B6D43F010027B685A657B689B6D9D
:10D6100043F001027B689A65786800F01FF97B6827
:10D620001B680C221A60BB6903F02003002B04D096
:10D630007B6903F02003002B09D1BB6903F0400391
:10D64000002B72D07B6903F04003002B6DD07B6808
:10D650005B6D03F01003002B05D17B685B6D43F419
:10D6600000527B685A657B681B681846FFF768FBA9
:10D67000F8607B681B681846FFF723FBB8607B687F
:10D680001B68DB683B61FB68002B47D03B6903F0FC
:10D690000073002B07D0BB68002B3FD03B6903F41D
:10D6A0000053002B3AD17B681B681B6803F04003D2
:10D6B000402B33D13B6903F40013002B2ED17B6840
:10D6C0001B681846FFF789FC0346002B1AD17B68BC
:10D6D0001B685A687B681B6822F060025A607B688E
:10D6E0005B6D23F480527B685A657B685B6D03F445
:10D6F0008073002B12D17B685B6D43F001027B6865
:10D700005A650BE07B685B6D43F010027B685A65DD
:10D710007B689B6D43F001027B689A65786800F036
:10D720003CFE7B681B6860221A60BB6903F08003C3
:10D73000002B11D07B6903F08003002B0CD07B6899
:10D740005B6D43F480327B685A65786800F090F82E
:10D750007B681B6880221A60BB6903F48073002B0E
:10D7600012D07B6903F48073002B0DD07B685B6D56
:10D7700043F400327B685A65786800F022FE7B68CB
:10D780001B684FF480721A60BB6903F40073002BAE
:10D7900012D07B6903F40073002B0DD07B685B6DA6
:10D7A00043F480227B685A65786800F014FE7B6839
:10D7B0001B684FF400721A60BB6903F01003002B62
:10D7C0002AD07B6903F01003002B25D07B685B6BAC
:10D7D000002B02D10123FB6108E07B681B68DB683A
:10D7E00003F00103002B01D00123FB61FB69012B36
:10D7F0000ED17B685B6D43F480627B685A657B6801
:10D800009B6D43F002027B689A65786800F03AF8F5
:10D810007B681B6810221A60BB6903F48063002BCD
:10D8200018D07B6903F48063002B13D07B685B6D99
:10D8300043F480427B685A657B689B6D43F0080225
:10D840007B689A657B681B684FF480621A60786811
:10D8500000F0ADFD00BF2037BD4680BD80B483B071
:10D8600000AF786000BF0C37BD465DF8047B7047A1
:10D8700080B483B000AF786000BF0C37BD465DF860
:10D88000047B704780B483B000AF786000BF0C3772
:10D89000BD465DF8047B704780B5B6B000AF7860D8
:10D8A0003960002387F8D7300023FB607B6893F84A
:10D8B0005030012B01D10223B9E37B68012283F8A8
:10D8C00050207B681B681846FFF760FB0346002B5F
:10D8D00040F09E833B685B68052B24D83B685B68FF
:10D8E000023B032B1BD801A252F823F0FDD80008FD
:10D8F00005D900080DD9000815D900083B680C228D
:10D900005A6011E03B6812225A600DE03B68182211
:10D910005A6009E03B684FF480725A6004E03B684B
:10D9200006225A6000E000BF7B6818683B685968AF
:10D930003B681B681A46FFF7D7F97B681B681846D7
:10D94000FFF724FBC7F8D0007B681B681846FFF779
:10D9500044FBC7F8CC00D7F8D030002B40F0A681AC
:10D96000D7F8CC30002B40F0A1817B6818683B6869
:10D9700019683B689B681A46FFF7F5F93B685A69D6
:10D980007B681B68DB68DB0803F003035B0002FABB
:10D9900003F3C7F8C8303B681B69042B0AD07B68C7
:10D9A00018683B6819693B681A68D7F8C830FFF7F0
:10D9B00033F97BE17B681B6800211846FFF750F9BB
:10D9C0000346C3F31203002B0AD17B681B680021B6
:10D9D0001846FFF745F903469B0E03F01F021EE0B1
:10D9E0007B681B6800211846FFF73AF90346C7F821
:10D9F000BC30D7F8BC3093FAA3F3C7F8B830D7F8E7
:10DA0000B830C7F8C030D7F8C030002B01D1202380
:10DA100004E0D7F8C030B3FA83F3DBB21A463B68B0
:10DA20001B68C3F31203002B05D13B681B689B0ED8
:10DA300003F01F0318E03B681B68C7F8B030D7F845
:10DA4000B03093FAA3F3C7F8AC30D7F8AC30C7F8CE
:10DA5000B430D7F8B430002B01D1202304E0D7F83C
:10DA6000B430B3FA83F3DBB29A4206D17B681B6809
:10DA7000002200211846FFF709F97B681B68012185
:10DA80001846FFF7EDF80346C3F31203002B0AD143
:10DA90007B681B6801211846FFF7E2F803469B0EDE
:10DAA00003F01F021EE07B681B6801211846FFF788
:10DAB000D7F80346C7F8A430D7F8A43093FAA3F3F5
:10DAC000C7F8A030D7F8A030C7F8A830D7F8A830EA
:10DAD000002B01D1202304E0D7F8A830B3FA83F358
