:020000040800F2
:108000000000012039260108812301088723010887
:108010008D23010893230108992301080000000023
:108020000000000000000000000000009F23010885
:10803000AD23010800000000BB230108C92301088B
:108040008926010889260108892601088926010850
:108050008926010889260108D523010889260108F7
:108060008926010889260108892601088926010830
:10807000E52301088926010889260108F92301085A
:10808000892601080D24010889260108892601088E
:1080900021240108892601088926010835240108C0
:1080A00089260108892601088926010889260108F0
:1080B0008926010800000000000000008926010850
:1080C0008926010845240108892601088926010816
:1080D00089260108592401086D2401088926010810
:1080E0008926010889260108000000000000000020
:1080F0000000000000000000000000000000000080
:1081000000000000892601080000000089260108FF
:1081100000000000000000008926010889260108EF
:10812000892601088926010889260108892601086F
:108130008926010800000000000000000000000087
:108140008926010889260108892601080000000007
:10815000892601088926010889260108892601083F
:1081600089260108892601088926010800000000E7
:10817000892601088926010800000000000000008F
:0C818000892601088926010889260108CB
:1081900010B5054C237833B9044B13B10448AFF341
:1081A00000800123237010BD20010020000000008A
:1081B0004CAB010808B5034B1BB103490348AFF3AF
:1081C000008008BD00000000240100204CAB010825
:1081D00001F0FF01102A2BDB10F0070F08D010F878
:1081E000013B013A8B422DD010F0070F42B3F6D17C
:1081F000F0B441EA012141EA014122F007047FF095
:1082000000070023F0E80256083C85EA010586EAEB
:10821000010685FA47F5A3FA87F586FA47F6A5FA27
:1082200087F68EB9EED1F0BC01F0FF0102F0070233
:1082300032B110F8013B013A83EA010313B1F8D1DE
:108240000020704701387047002D06BF35460338BF
:10825000073815F0010F07D1013015F4807F02BFF8
:10826000013015F4C03F0130F0BC0138704700BF49
:108270007BB972B90029BEBF00204FF0004106E073
:1082800008BF00281CBF6FF000414FF0FF3000F026
:10829000BFB9ADF1080C6DE904CE002909DB002B54
:1082A0001ADB00F04DF8DDF804E0DDE9022304B04C
:1082B0007047404261EB4101002B1BDB00F040F8AE
:1082C000DDF804E0DDE9022304B0404261EB410146
:1082D000524263EB43037047524263EB430300F0A7
:1082E0002FF8DDF804E0DDE9022304B0404261EB41
:1082F00041017047524263EB430300F021F8DDF87F
:1083000004E0DDE9022304B0524263EB430370470B
:1083100053B94AB9002908BF00281CBF4FF0FF31EC
:108320004FF0FF3000F074B9ADF1080C6DE904CEE8
:1083300000F006F8DDF804E0DDE9022304B0704740
:108340002DE9F047089D04468E46002B4DD18A4208
:10835000944669D9B2FA82F252B101FA02F3C2F13B
:10836000200120FA01F10CFA02FC41EA030E9440CC
:108370004FEA1C48210CBEFBF8F61FFA8CF708FBED
:1083800016E341EA034306FB07F199420AD91CEBC5
:10839000030306F1FF3080F01F81994240F21C81F7
:1083A000023E63445B1AA4B2B3FBF8F008FB10333F
:1083B00044EA034400FB07F7A7420AD91CEB040474
:1083C00000F1FF3380F00A81A74240F20781644444
:1083D000023840EA0640E41B00261DB1D4400023C9
:1083E000C5E900433146BDE8F0878B4209D9002D2D
:1083F00000F0EF800026C5E9000130463146BDE8B7
:10840000F087B3FA83F6002E4AD18B4202D3824220
:1084100000F2F980841A61EB030301209E46002DCF
:10842000E0D0C5E9004EDDE702B9FFDEB2FA82F224
:10843000002A40F09280A1EB0C014FEA1C471FFA82
:108440008CFE0126200CB1FBF7F307FB131140EA69
:1084500001410EFB03F0884208D91CEB010103F136
:10846000FF3802D2884200F2CB804346091AA4B2F8
:10847000B1FBF7F007FB101144EA01440EFB00FECC
:10848000A64508D91CEB040400F1FF3102D2A64531
:1084900000F2BB800846A4EB0E0440EA03409CE7D0
:1084A000C6F12007B34022FA07FC4CEA030C20FA7D
:1084B00007F401FA06F31C43F9404FEA1C4900FA9D
:1084C00006F3B1FBF9F8200C1FFA8CFE09FB18111A
:1084D00040EA014108FB0EF0884202FA06F20BD98D
:1084E0001CEB010108F1FF3A80F08880884240F2DD
:1084F0008580A8F102086144091AA4B2B1FBF9F021
:1085000009FB101144EA014100FB0EFE8E4508D91B
:108510001CEB010100F1FF346CD28E456AD90238A0
:10852000614440EA0840A0FB0294A1EB0E01A14285
:10853000C846A64656D353D05DB1B3EB080261EBF3
:108540000E0101FA07F722FA06F3F1401F43C5E9CD
:10855000007100263146BDE8F087C2F12003D84003
:108560000CFA02FC21FA03F3914001434FEA1C4745
:108570001FFA8CFEB3FBF7F007FB10360B0C43EA37
:10858000064300FB0EF69E4204FA02F408D91CEBE7
:10859000030300F1FF382FD29E422DD902386344E5
:1085A0009B1B89B2B3FBF7F607FB163341EA034185
:1085B00006FB0EF38B4208D91CEB010106F1FF38D4
:1085C00016D28B4214D9023E6144C91A46EA0046CB
:1085D00038E72E46284605E70646E3E61846F8E65D
:1085E0004B45A9D2B9EB020864EB0C0E0138A3E7A6
:1085F0004646EAE7204694E74046D1E7D0467BE787
:10860000023B614432E7304609E76444023842E7FE
:10861000704700BF80B584B000AF78600B467B80A8
:10862000194B80221A610BF023FC7B88FB60174BEF
:1086300000221A607B68C3F31303DB0A134A9360BA
:10864000124AFB68D360114B01225A600E4B48F26C
:1086500080021A614FF47A700BF048FC07F10803AE
:1086600019460A480BF0F6FC0346002B05D00BF028
:1086700021FC0BF02FFC034602E00BF01BFC002357
:1086800018461037BD4680BD002002403C01002046
:1086900080B586B000AFF860B9601346FB80002358
:1086A0007B611B4B48F280021A61FB88FF33002B71
:1086B00000DAFF331B129BB21946F868FFF7AAFFD6
:1086C0000BF0D6FB19E07B69DB00BA681344D3E9F1
:1086D0000023F96800200BF05FFB0346002B06D156
:1086E000FB680833FB607B6901337B6105E00BF0BD
:1086F000E1FB0BF0EFFB034606E0FB887A699A4248
:10870000E1DB0BF0D7FB002318461837BD4680BDD0
:108710000020024080B400AFBFF34F8F00BF064B74
:10872000DB6803F4E0620449044B1343CB60BFF3FE
:108730004F8F00BF00BFFDE700ED00E00400FA0529
:1087400084B090B400AF07F1080484E80F00082358
:10875000BB6100233B6140F20513BB6000237B61DA
:1087600000BFBD4690BC04B07047000084B0B0B5F7
:1087700088B006AF07F1180484E80F00BB6A082B25
:108780000BD06D4607F128040FCC0FC523682B6072
:1087900007F118030FCBFFF7D3FF00237B6007F12E
:1087A000380307F1300207F1180114480AF07BFA88
:1087B0000346FB7017E007F1380307F1300207F1B9
:1087C00018010E480AF06FFA0346FB70FB78012B84
:1087D00005D1012001F07CF87B6801337B607B6868
:1087E000B3F57A7F03D0FB78002BE4D100E000BF23
:1087F0000837BD46BDE8B04004B07047C40700204C
:10880000B0B582B000AF78600D4B0E4A0021786899
:108810000AF019FB0346002B01D009F003F90A4ABC
:10882000084B14461D460FCD0FC40FCD0FC42B6847
:108830002360064B01221A7000BF0837BD46B0BD49
:108840006C01002050010020740100204C01002028
:1088500084B0B0B5AAB006AF07F1A00484E80F0059
:1088600000237B67A04B1B7F4C2B40F09B809E4BD3
:108870005B7F572B40F096809B4B9B7F002B2DD02E
:10888000994BDB7F022B00F282840023C7F88C30E7
:1088900012E0954BDB7F1946944A0B469B000B4434
:1088A0001B011A44D7F88C30134400221A70D7F8F1
:1088B0008C300133C7F88C30D7F88C304F2BE8DD83
:1088C0008B4B03221A70884BDB7F1A46894B0021A1
:1088D0009954894B00221A6000F05EBC0023C7F84F
:1088E000883055E0D7F8883004337F4A13441B7F23
:1088F000602B22D9D7F8883004337B4A13441B7F7E
:108900007A2B1AD8D7F888300433774A13441B7F60
:10891000754AD27F1046764A12781146D7F88820D9
:108920000A44203BDCB2714903469B0003441B010F
:108930000B44134422461A7017E0D7F888300433EA
:10894000694AD27F10466A4A12781146D7F88820C1
:108950000A4465490B441C7F644903469B00034459
:108960001B010B44134422461A70D7F88830043395
:108970005D4A13441B7FC72B05D95B4BDB7F1A462F
:108980005C4B01219954D7F888300133C7F88830FF
:10899000D7F88830032BA5DD554B1B780433DAB2AA
:1089A000534B1A70504B1B7F432B34D14E4B5B7F84
:1089B0004D2B30D14C4B9A7F504B1A704F4B1B783C
:1089C000002B03D0484BDA7F4D4B1A704D4B0122E0
:1089D0001A704D4B1B781C2B1DD1474B00221A607F
:1089E000414B93F8203003F001037B67464B002294
:1089F0001A70454B00225A70434B00229A70424B2A
:108A00000022DA70404B00221A713F4B01225A714A
:108A10003D4B00229A71344B1B7F482B40F09F80C6
:108A2000314B5B7F4C2B40F09A80334B00221A6015
:108A30002D4B9B7FFA2B69D02B4B93F8203003F002
:108A400001037B67284B987F2F497A6F1346DB0021
:108A50009B1A0B4402461A70234BD87F2A497A6F1F
:108A60001346DB009B1A0B44013302461A701E4B5F
:108A700093F8210024497A6F1346DB009B1A0B44BC
:108A8000023302461A70184B93F822001E497A6F7F
:108A90001346DB009B1A0B44033302461A70124B39
:108AA00093F8230018497A6F1346DB009B1A0B4496
:108AB000043302461A7014497A6F1346DB009B1A7E
:108AC0000B44053301221A70074B93F820305B08E2
:108AD000D8B20D497A6F1346DB009B1A0B4406335C
:108AE00002461A703BE000BF74010020BC06002063
:108AF00088000020C0070020800D00209E0100207B
:108B00009D0100209C010020A00C0020A44B9A7F16
:108B1000A44B1A70A24BDA7FA24B5A70A04B93F869
:108B20002120A04B9A709E4B93F822209D4BDA7027
:108B30009B4B93F823209B4B1A719A4B01225A713D
:108B4000984B00221A73964B93F82020954B9A71FC
:108B5000954B1B6800225A62944B00221A60904B7E
:108B60001B7F432B5AD18E4B5B7F4C2B56D18C4BAA
:108B700093F8203003F001037B67894B987F8C4981
:108B80007A6F1346DB009B1A0B4402461A70844B23
:108B9000D87F87497A6F1346DB009B1A0B44013359
:108BA00002461A707E4B93F8210081497A6F134672
:108BB000DB009B1A0B44023302461A70784B93F881
:108BC00022007B497A6F1346DB009B1A0B44033368
:108BD00002461A70724B93F8230075497A6F134658
:108BE000DB009B1A0B44043302461A7070497A6FFB
:108BF0001346DB009B1A0B44053301221A70684BA5
:108C000093F820305B08D8B269497A6F1346DB00CD
:108C10009B1A0B44063302461A70BDE2604B1B7F61
:108C2000532B40F0FA815E4B5B7F532B40F0F58174
:108C300008233B610023BB604FF482733B60002339
:108C4000FB6097F8BC303B7697F8BD307B7697F8A1
:108C5000BE30BB7697F8BF30FB7697F8C0303B77D5
:108C600097F8C1307B7797F8C230BB7797F8C3305D
:108C7000FB776D4607F110040FCC0FC523682B60FE
:108C80003B460FCBFFF772FD4FF481733B606D469F
:108C900007F110040FCC0FC523682B603B460FCBA8
:108CA000FFF764FD3E4B9B7F002B1FD13C4BDB7FCE
:108CB000184606F023FF0346FF2B00F06A82384B6C
:108CC00093F822309BB21B029DB2354B93F82330B0
:108CD0009CB2334BDB7F184606F010FF03461A4662
:108CE0002B1999B2334B23F8121054E22C4B9B7F73
:108CF000012B3ED10023C7F884302EE0284BDA7FC9
:108D0000D7F88430DBB21344DBB2184606F0F6FE27
:108D10000346FF2B1BD0224B93F822309BB21B0241
:108D20009DB21F4B93F823309CB21D4BDA7FD7F8CE
:108D30008430DBB21344DBB2184606F0DFFE034694
:108D40001A462B1999B21B4B23F8121000E000BFF2
:108D5000D7F884300133C7F88430114B93F82030B2
:108D60001A460F4BDB7FD31AD7F884209A42C5DD11
:108D700011E20B4B9B7F022B40F09F800023C7F832
:108D800080308CE0064BDB7F184606F0B7FE0346CA
:108D900087F8723097F87230FF2B0DD100BFF8E1E1
:108DA00074010020A00C002070090020E80C0020B5
:108DB000B00C0020280C002097F87230A14A012145
:108DC000D15408237B630023FB6240F205137B62CE
:108DD00000233B639C4BDB7F87F83C309A4BDB7F67
:108DE000002B0CBF01230023DBB287F83D3097F83E
:108DF0007220964913465B0013445B000B441B78BA
:108E000087F83E3097F87220904913465B00134470
:108E10005B000B4401331B7887F83F3097F87220D2
:108E20008A4913465B0013445B000B4402331B78F2
:108E300087F8403097F87220844913465B0013444A
:108E40005B000B4403331B7887F8413097F872209E
:108E50007E4913465B0013445B000B4404331B78CC
:108E600087F8423097F87220784913465B00134424
:108E70005B000B4405331B7887F843306D4607F1E0
:108E800034040FCC0FC523682B6007F124030FCBEC
:108E9000FFF76CFCD7F880300133C7F880306A4B9D
:108EA00093F82130012B38BF0123DBB21A46D7F8E3
:108EB00080309342FFF666AF6DE1634B9B7F032BDF
:108EC00040F069810023FB679AE00023BB6789E0DB
:108ED0005D4BDA7FBB6FDBB21344DBB2184606F0A2
:108EE0000DFE034687F8733097F87330FF2B75D06B
:108EF00097F87330534A0121D15408237B63002330
:108F0000FB6240F205137B6200233B634E4BDA7F2A
:108F1000BB6FDBB21344DBB287F83C304A4BDB7FDC
:108F20001A46BB6F1344002B0CBF01230023DBB296
:108F300087F83D3097F87320444913465B0013448B
:108F40005B000B441B7887F83E3097F873203F494D
:108F500013465B0013445B000B4401331B7887F816
:108F60003F3097F87320394913465B0013445B0088
:108F70000B4402331B7887F8403097F8732033494D
:108F800013465B0013445B000B4403331B7887F8E4
:108F9000413097F873202D4913465B0013445B0062
:108FA0000B4404331B7887F8423097F87320274925
:108FB00013465B0013445B000B4405331B7887F8B2
:108FC00043306D4607F134040FCC0FC523682B6086
:108FD00007F124030FCBFFF7C9FB00E000BFBB6F15
:108FE0000133BB67184B93F820301A46164BDB7FD2
:108FF000D31ABA6F9A427FF76BAFFB6F0133FB67EF
:10900000114B93F82130012B38BF0123DBB21A46F4
:10901000FB6F9342FFF659AFBDE00B4B1B7F462B16
:1090200018D1094B5B7F4E2B14D1074B93F823309B
:1090300087F8673007F167016423012204480FF0C5
:109040008AF8A9E0880C0020740100209C0B002005
:10905000940A0020534B1B7F502B2ED1514B5B7F2A
:10906000452B2AD14F4B9B7F002B14BF012300239C
:10907000DBB21A464C4B1A704A4BDB7F002B14BFF5
:1090800001230023DBB21A46474B5A70454B93F835
:109090002030002B14BF01230023DBB21A46424BC1
:1090A0009A70404B93F82130002B14BF012300230A
:1090B000DBB21A463C4BDA706EE03A4B1B7F212B39
:1090C0006AD1384B5B7F532B66D1364B9B7F572B36
:1090D00062D1344BDB7F552B5ED140233B650123AE
:1090E0007B650023BB6540214FF090400BF052FAA6
:1090F00007F1500319464FF090400BF0D1F80123CF
:109100003B6501237B650023BB65012127480BF0EC
:1091100041FA07F15003194624480BF0C1F82448DE
:109120000FF004F923480FF001F9234809F041FC3E
:1091300022480DF040FC22480DF03DFC21480DF086
:109140003AFC21480DF037FC20480DF034FC6FF05C
:1091500020426FF00A03C7E9122307F148030122F6
:1091600019461B48FFF794FA642009F003FB4FF0FF
:1091700000631B68FB66174B4FF000629A60FB6E42
:10918000BB66BB6E83F3088800BFFFF7C3FA00BF5E
:1091900002E000BF00E000BF9037BD46BDE8B04030
:1091A00004B07047740100208C00002000080048C3
:1091B000940A0020180B0020C4070020400800205B
:1091C0008C080020D8080020240900207009002005
:1091D00000F8030800ED00E084B0B0B58CB006AF35
:1091E000786087ED000A07F12C0080E80E0001206E
:1091F00000F06EFB0823FB6300237B630023BB634B
:10920000002387F84430002387F84530002387F88F
:109210004630002387F84730002387F84830002382
:1092200087F84930002387F84A30002387F84B300D
:109230007B68D3ED007A97ED007AB4EEE77AF1EE31
:1092400010FA11DD7B68D3ED007A97ED007A77EEA6
:10925000677AB2EE007AF4EEC77AF1EE10FACCBF7C
:1092600001230023DBB210E07B6893ED007AD7ED99
:10927000007A77EE677AB2EE007AF4EEC77AF1EE12
:1092800010FACCBF01230023DBB2002B3DD07B685A
:109290003A681A60D7ED007AFDEEE77A07F10C0321
:1092A0000122194617EE900A06F0C2FC212387F826
:1092B0004430542387F84530542387F8463003233D
:1092C0007B610DE007F10C027B691344197807F10B
:1092D00044027B6913440A461A707B6901337B613F
:1092E0007B69072BEEDD4FF48273FB626D4607F15D
:1092F0003C040FCC0FC523682B6007F12C030FCB68
:10930000FFF734FA40F20513FB6200BF1837BD4681
:10931000BDE8B04004B0704790B58DB000AF0446D2
:10932000084611461A462346FB710346BB710B469D
:109330007B7113463B71002387F82F304FF0FF33CA
:109340003B6107F110031B68FB610023BB6251E026
:10935000BB6ADAB27B79B979F87900F0ABF84F4B98
:109360005B78002B0AD14D4B1B78002B06D1BB6AD2
:109370009B003A6C1344FA691A6038E0474B5B78FB
:109380001B02464A1278134407EE903AF8EEE77A49
:10939000434BC3ED007A424BD3ED007A77EEA77AC8
:1093A0003F4BC3ED007A3E4B93ED007AF2EE046A38
:1093B000C7EE267A3A4BC3ED007A394BD3ED007AEB
:1093C0009FED387A77EEC77A354BC3ED007ABB6AEA
:1093D0009B003A6C1344324A12681A60324B5B6C41
:1093E000002B04D097F82F30013387F82F30BB6A59
:1093F0000133BB623B79BA6A9A42A9DB4FF00003A2
:10940000FB6000237B6233E07B6ADBB21033DBB2AC
:10941000184606F073FB0346FB767B6A9B003A6CAA
:10942000134493ED007AF2EE046AC7EE267AC7ED94
:10943000037A07F10C037B6102233B6212E03B6A73
:10944000023B7A691344FA7E1878184913465B0088
:1094500013445B00CA183B6A134402461A703B6A05
:1094600001333B623B6A052BE9DD7B6A01337B629A
:109470007B6A032BC8DD97F82F203B799A4208D1ED
:109480000B4B01221A7008480BF04FFA06480BF0FC
:10949000BDF900BF3437BD4690BD00BFA00100201C
:1094A000A401002000A02A45EC0700209C0B00200E
:1094B0000100002090B589B004AF0446084611466B
:1094C0001A462346FB710346BB710B467B7113465C
:1094D0003B711E4B1B781A467B7902FA03F3DBB211
:1094E000BB733B799BB25B0099B207F10E020A2372
:1094F0000093012316480BF047FAFB799BB25B00FF
:1095000099B26423022212480BF04CFC0346FB7311
:10951000FB7B002B10D1FB799BB25B0099B2BB792E
:109520009AB20A230293022301930A4B0093012368
:1095300007480BF01DFB05E0064B00225A70054B57
:1095400000221A7000BF1437BD4690BD00000020F5
:10955000EC070020A001002080B487B000AF87EDA9
:10956000010AC7ED000A3B1D3B613B46FB6000233F
:109570007B610EE07B693A6913441A787B69F9686C
:109580000B441B789A4201D0012306E07B6901332A
:109590007B617B69032BEDDD002318461C37BD463C
:1095A0005DF8047B704780B588B000AF78604FF0FD
:1095B000FF33FB6007F10C031B687B614FF0000376
:1095C000FB614FF000033B610023BB611EE0BB6900
:1095D0009B007A6813441B683B61D7ED050A97ED41
:1095E000040AFFF7B9FF0346002B0CD097ED077A6A
:1095F000D7ED047AB4EEE77AF1EE10FA01DDFB69FB
:1096000000E03B69FB61BB690133BB61BB69032BB4
:10961000DDDDFB6907EE903AB0EE670A2037BD4604
:1096200080BD000080B400AF0122864B1A60012289
:10963000844B5A602322834B9A602822814BDA6044
:109640009022804B1A615F227E4B5A617E4B1B68D1
:109650007C4A936123227B4BDA61A122794B1A6207
:109660007A4B1B68774A5362794B1B68754A936241
:10967000784B1B68734AD362774B1B68714A13633C
:10968000764B1B686F4A5363754B1B686D4A936337
:10969000744B1B686B4AD363734B1B68694A136432
:1096A000724B1B68674A5364714B1B68654A93642D
:1096B000704B1B68634AD3646F4B1B68614A136528
:1096C0006E4B1B685F4A53656D4B1B685D4A936523
:1096D0006C4B1B685B4AD3656B4B1B68594A13661E
:1096E0006A4B1B68574A5366694B1B68554A936619
:1096F0002922544BDA660122524B5A670522514BFC
:109700009A670122634B1A60634B1B68614A53607E
:10971000624B1B685F4A9360614B1B685D4AD36074
:10972000604B1B685B4A13615F4B1B68594A53616E
:109730005E4B1B68574A93615D4B1B68554AD3616A
:109740005C4B1B68534A13625B4B1B68514A536264
:109750005A4B1B684F4A9362594B1B684D4AD36260
:10976000584B1B684B4A1363574B1B68494A53635A
:10977000564B00221A70554B00225A70534B002250
:109780009A70524BCF22DA70504BCF221A714F4B46
:10979000CF225A714D4B00229A714C4BFF22DA7145
:1097A0004A4B00221A72494B00225A72474B9622AA
:1097B0009A72464B0022DA72444B00221A73434BD2
:1097C000FF225A73414B00229A73404B0022DA73F6
:1097D0003E4B00221A743D4BFF225A743B4BCD2264
:1097E0009A743A4B0022DA74384BDC221A75374BE4
:1097F0005A225A75354B00229A75344BFF22DA757E
:10980000324BFF221A76314B00225A762F4B002220
:109810009A762E4BFF22DA762C4B00221A772B4BAE
:109820000A225A77294BD2229A77284B3222DA77AA
:10983000264B822283F8202000BFBD465DF8047BC2
:10984000704700BFA8010020380000203C00002025
:109850004000002044000020480000204C00002070
:109860005000002054000020580000205C00002020
:109870006000002064000020680000206C000020D0
:109880007000002074000020780000207C00002080
:1098900080000020080600200400002008000020AE
:1098A0000C000020100000201400002018000020F0
:1098B0001C000020200000202400002028000020A0
:1098C0002C0000203000002034000020C00C0020BC
:1098D00080B483B000AF0346FB80094B1B680022B5
:1098E0005A6200BF064B1B685A6AFB889A42F9D33A
:1098F00000BF00BF0C37BD465DF8047B704700BF5A
:10990000D808002080B582B000AF78607B681B7FEC
:10991000012B09D100210C480EF06CF90B4B0022F1
:109920001A600B4B00221A607B681B7F042B06D148
:10993000082105480EF05EF9064B00221A6000BFB0
:109940000837BD4680BD00BF40080020B406002097
:10995000B0060020B806002080B586B000AFF860E1
:10996000B9607A603B60BB683A6802FB03F3374A30
:1099700082FB03121A44D211DB17D31A1A04FB68B4
:10998000396801FB03F3314981FB03011944C91113
:10999000DB17CB1A1B021A447B68396801FB03F3FF
:1099A0002A4981FB03011944C911DB17CB1A13445F
:1099B0003B61274B00221A8617237B611AE00122A4
:1099C0007B6902FA03F31A463B691340002B07D068
:1099D0007B69C3F117031E4A422122F8131006E0E7
:1099E0007B69C3F117031A4A212122F813107B69FE
:1099F000013B7B617B69002BE1DA00BF1923144A2C
:109A0000002114480DF092FF0346022BF6D0124BB2
:109A100001221A60114B01221A6040F69800FFF7EC
:109A200057FF09E00C4B1B68012B05D1094B93F83C
:109A30003E30DBB2012B04D0074B1B68002BF1D169
:109A400000E000BF00BF1837BD4680BD8180808028
:109A50007C06002040080020B0060020B40600204C
:109A600080B588B000AFF860B9607A603B60BB68D1
:109A70003A6802FB03F3454A82FB03121A44D211EF
:109A8000DB17D31A1A04FB68396801FB03F33F495B
:109A900081FB03011944C911DB17CB1A1B021A44BD
:109AA0007B68396801FB03F3384981FB03011944E2
:109AB000C911DB17CB1A13447B61354B00221A8680
:109AC0001723FB611AE00122FB6902FA03F31A462D
:109AD0007B691340002B07D0FB69C3F117032C4AA5
:109AE000422122F8131006E0FB69C3F11703284A4C
:109AF000212122F81310FB69013BFB61FB69002B5C
:109B0000E1DA00233B61234B93F84030DBB23B6149
:109B100000BF19231E4A08211E480DF007FF034607
:109B2000022BF6D01C4B01221A601C4B01221A603A
:109B300040F69800FFF7CCFE00237B831BE07B8B75
:109B400001337B83134B93F84030DBB23B61124B04
:109B50001B68012B05D10F4B93F84030DBB2012B72
:109B60000ED07B8B42F21072934204D9082109482F
:109B70000DF02CF805E0084B1B68002BDFD100E04E
:109B800000BF00BF2037BD4680BD00BF8180808000
:109B90004806002040080020B8060020B406002037
:109BA00080B588B000AF78600023FB614BE00023F4
:109BB000BB6142E0BB69B3F1FF3F02D1FB69002BFF
:109BC00037D1FB6903F00103002B14D0FB694FF47C
:109BD0008A7202FB03F37A68D118BB69C3F11602DB
:109BE00013465B0013449B00CA1807F1080307CA19
:109BF00083E8070011E0FB694FF48A7202FB03F36C
:109C00007A68D118BA6913465B0013449B00CA18DE
:109C100007F1080307CA83E807003B697B613B7AC9
:109C200018467B7A1946BB7A1A467B69FFF794FE81
:109C300000E000BFBB690133BB61BB69162BB9DD16
:109C4000FB690133FB61FB69082BB0DD00BF00BF7E
:109C50002037BD4680BD80B586B000AF78600B462A
:109C6000FB7000237B6131E000233B6128E07A69CF
:109C700013465B001344DB009A1A3B691A441346EF
:109C80005B001A44FB7840F26D2101FB03F313449F
:109C9000FB60FB687A6813441B781846FB68013345
:109CA0007A6813441B781946FB6802337A681344B8
:109CB0001B781A465523FFF74FFE3B6901333B6182
:109CC0003B69162BD3DD7B6901337B617B69082BF4
:109CD000CADD00BF00BF1837BD4680BD80B588B063
:109CE00000AF78600023FB611AE0FA6913465B005D
:109CF00013449B001A467B681A4407F10C0307CAF9
:109D000083E807007B69BB613B7B18467B7B194678
:109D1000BB7B1A46BB69FFF7A3FEFB690133FB61FE
:109D2000FB69192BE1DD00BF00BF2037BD4680BDB8
:109D300080B485B000AF78600023FB601BE0002397
:109D4000BB6012E0FB684FF48A7202FB03F37A688F
:109D5000D118BA6813465B0013449B000B440833C8
:109D600000221A60BB680133BB60BB68162BE9DDBB
:109D7000FB680133FB60FB68082BE0DD00BF00BF20
:109D80001437BD465DF8047B7047000090B589B07C
:109D900000AF78600023FB61C4E00023BB61BAE040
:109DA000FB694FF48A7202FB03F37A68D118BA692F
:109DB00013465B0013449B00CA1807F1080307CA47
:109DC00083E80700FA6913465B001344DB009A1A24
:109DD000BB691344584AD35C3B6100233B720023A8
:109DE0007B720023BB723B69002B05D096233B722C
:109DF00000237B720023BB72FA6913465B00134495
:109E0000DB009A1ABB6913444C4AD35C002B10D078
:109E1000FA6913465B001344DB009A1ABB691344CA
:109E2000464AD35C3B6164233B7264237B726423A8
:109E3000BB72FA6913465B001344DB009A1ABB69D4
:109E400013443F4AD35C002B4ED00FF02FFF014646
:109E50003C4B83FB0132CB17D21A13465B001344F1
:109E6000CA1A531E7B61384B1A687B691344272B2F
:109E700006DC354B1A687B69134423EAE37300E080
:109E80002823314A13603969FA6913465B00134489
:109E9000DB009A1ABB691344294AD35C1A462A4B41
:109EA0001B681344EF2B10DCFA6913465B00134464
:109EB000DB009A1ABB691344214AD35C1A46224B31
:109EC0001B68134423EAE37300E0F0230B443B6177
:109ED0003B7A5033DBB23B727B7A2833DBB27B7246
:109EE000BB7A1433DBB2BB72FB694FF48A7202FB9C
:109EF00003F37A68D118BA6913465B0013449B00D8
:109F00000B441C4607F1080393E8070084E80700A8
:109F1000BB690133BB61BB69162B7FF741AFFB699E
:109F20000133FB61FB69082B7FF737AF00BF00BF30
:109F30002437BD4690BD00BFE8480308B849030870
:109F4000884A0308565555558400002090B48EB0B9
:109F500000AFF860B9607A603B60002387F8373063
:109F600000233B630023FB620023BB6200237B6270
:109F700011E03A68FB6A13441B78FF2B02D1BB6ADD
:109F80001633BB62BB6A0133BB62FB6A0133FB62FF
:109F90007B6A01337B62BB68CF2202FB03F31A4664
:109FA000BB6A9342E5D300233B6256E00023FB618A
:109FB0004AE03B6A4FF48A7202FB03F3FA68D11855
:109FC000FA6913465B0013449B00CA1807F110039B
:109FD00007CA83E8070097F83730002B02D0002328
:109FE000BB611AE03A6BFB6A13443A6813441B786E
:109FF000FF2B0AD03A6BFB6A13443A6813441B7870
:10A00000BB613B6B01333B6307E0012387F83730CB
:10A010003B6B01333B630023BB613B6A4FF48A72A5
:10A0200002FB03F3FA68D118FA6913465B00134484
:10A030009B000B441C4607F1100393E8070084E8DB
:10A040000700FB690133FB61FB69162BB1DD0023BF
:10A0500087F837303B6A01333B623B6A082BA5DD4A
:10A0600000BF00BF3837BD4690BC704780B584B094
:10A0700000AFF860B9607A607B68002B06D18A4B2C
:10A080007A68B968F868FFF761FF58E17B68012BCF
:10A0900006D1864B7A68B968F868FFF757FF4EE13A
:10A0A0007B68022B06D1824B7A68B968F868FFF7A3
:10A0B0004DFF44E17B68032B06D17E4B7A68B9687B
:10A0C000F868FFF743FF3AE17B68042B06D17A4B2F
:10A0D0007A68B968F868FFF739FF30E17B68052BCB
:10A0E00006D1764B7A68B968F868FFF72FFF26E14A
:10A0F0007B68062B06D1724B7A68B968F868FFF75F
:10A1000025FF1CE17B68072B06D16E4B7A68B96886
:10A11000F868FFF71BFF12E17B68082B06D16A4B3A
:10A120007A68B968F868FFF711FF08E17B68092BC6
:10A1300006D1664B7A68B968F868FFF707FFFEE05A
:10A140007B680A2B06D1624B7A68B968F868FFF71A
:10A15000FDFEF4E07B680B2B06D15E4B7A68B96894
:10A16000F868FFF7F3FEEAE07B680C2B06D15A4B48
:10A170007A68B968F868FFF7E9FEE0E07B680D2BC4
:10A1800006D1564B7A68B968F868FFF7DFFED6E06B
:10A190007B680E2B06D1524B7A68B968F868FFF7D6
:10A1A000D5FECCE07B680F2B06D14E4B7A68B968A0
:10A1B000F868FFF7CBFEC2E07B68102B06D14A4B54
:10A1C0007A68B968F868FFF7C1FEB8E07B68112BC0
:10A1D00006D1464B7A68B968F868FFF7B7FEAEE07B
:10A1E0007B68122B06D1424B7A68B968F868FFF792
:10A1F000ADFEA4E07B68132B06D13E4B7A68B968AC
:10A20000F868FFF7A3FE9AE07B68142B06D13A4B5F
:10A210007A68B968F868FFF799FE90E07B68152BBB
:10A2200006D1364B7A68B968F868FFF78FFE86E08A
:10A230007B68162B06D1324B7A68B968F868FFF74D
:10A2400085FE7CE07B68172B06D12E4B7A68B968B7
:10A25000F868FFF77BFE72E07B68182B06D12A4B6B
:10A260007A68B968F868FFF771FE68E07B68192BB7
:10A2700006D1264B7A68B968F868FFF767FE5EE09A
:10A280007B681A2B06D1224B5B781946F86804F0DC
:10A2900039FF54E07B681B2B3ED11E4B7A68B968AE
:10A2A000F868FFF753FE4AE0ACEC01087CED0108CA
:10A2B0004CEE0108C40402083C1E0208AC2F020840
:10A2C000606D0208C87D02087C8E020890A4020816
:10A2D000B0A40208FCAA0208ACB5020848B60208FD
:10A2E000D0B602086CB7020808B80208A4B8020881
:10A2F0002CB9020800BF020894C3020830D102083A
:10A3000088F10208381103087C1C0308282A030876
:10A31000A00C0020143003087B681D2B06D10A4BCB
:10A320007A68B968F868FFF711FE08E07B681E2BB1
:10A3300005D1064B7A68B968F868FFF707FE00BFD9
:10A340001037BD4680BD00BF402C0308E42C030835
:10A3500090B488B000AFF860B9607A600023FB6108
:10A36000C6E0FA6913465B0013449B001A46FB687B
:10A370001A4407F1100307CA83E807007B68002B23
:10A3800008D1BB681A2203FB02F2FB6913445D4A41
:10A39000D35CBB617B68012B08D1BB681A2203FB2D
:10A3A00002F2FB691344584AD35CBB617B68022B01
:10A3B00008D1BB681A2203FB02F2FB691344534A1B
:10A3C000D35CBB617B68032B08D1BB681A2203FBFB
:10A3D00002F2FB6913444E4AD35CBB617B68042BD9
:10A3E00008D1BB681A2203FB02F2FB691344494AF5
:10A3F000D35CBB617B68052B08D1BB681A2203FBC9
:10A4000002F2FB691344444AD35CBB617B68062BB0
:10A4100008D1BB681A2203FB02F2FB6913443F4ACE
:10A42000D35CBB617B68072B08D1BB681A2203FB96
:10A4300002F2FB6913443A4AD35CBB617B68082B88
:10A4400008D1BB681A2203FB02F2FB691344354AA8
:10A45000D35CBB617B68092B08D1BB681A2203FB64
:10A4600002F2FB691344304AD35CBB617B680A2B60
:10A4700008D1BB681A2203FB02F2FB6913442B4A82
:10A48000D35CBB617B680B2B08D1BB681A2203FB32
:10A4900002F2FB691344264AD35CBB617B680C2B38
:10A4A00008D1BB681A2203FB02F2FB691344214A5C
:10A4B000D35CBB617B680D2B08D1BB681A2203FB00
:10A4C00002F2FB6913441C4AD35CBB61FA69134670
:10A4D0005B0013449B001A46FB6813441C4607F1BB
:10A4E000100393E8070084E80700FB690133FB6170
:10A4F000FB69192B7FF735AF00BF00BF2037BD4682
:10A5000090BC704764AB010880AB01089CAB0108AC
:10A51000FCC301084CCB010888D30108A4D301086F
:10A52000C0D30108DCD30108F8D3010814D4010812
:10A5300030D40108F0DD010890EC010890B48AB035
:10A5400000AFF860B9607A603B6000237B623AE05C
:10A5500000233B6231E07B6A4FF48A7202FB03F313
:10A56000FA68D1183A6A13465B0013449B00CA1874
:10A5700007F1140307CA83E80700BB68DBB23B7529
:10A580007B68DBB27B753B68DBB2BB757B6A4FF4E3
:10A590008A7202FB03F3FA68D1183A6A13465B0029
:10A5A00013449B000B441C4607F1140393E8070077
:10A5B00084E807003B6A01333B623B6A162BCADD25
:10A5C0007B6A01337B627B6A082BC1DD00BF00BF61
:10A5D0002837BD4690BC704790B488B000AFF86093
:10A5E000B9607A603B600023FB6127E0FA6913469B
:10A5F0005B0013449B001A46FB681A4407F11003E2
:10A6000007CA83E80700BB68DBB23B747B68DBB238
:10A610007B743B68DBB2BB74FA6913465B0013447E
:10A620009B001A46FB6813441C4607F1100393E88D
:10A63000070084E80700FB690133FB61FB69192B04
:10A64000D4DD00BF00BF2037BD4690BC704700007E
:10A65000B0B590B006AF3B4B1B7B012B1ED1394BE5
:10A66000DA79384B1A70374B1A7A364B5A70354BA9
:10A670005A7A344B9A70334B9A7A324BDA70314BA8
:10A68000DA7A304B1A712F4B01225A712D4B5A7BBB
:10A690002C4B9A712B4B00221A7323E0294B9B7988
:10A6A000012B15D1274B00221A70264BFF225A701E
:10A6B000244B00229A70234B0022DA70214B002297
:10A6C0001A71204B01225A711E4B00229A7109E027
:10A6D0001C4B9B79002B05D01A4B9B79013BDAB2BE
:10A6E000184B9A7108237B610023FB6040F205132D
:10A6F0007B6000233B6148233B774C237B7700231F
:10A70000BB770023FB77002387F82030452387F8A9
:10A7100021304F2387F82230462387F823300A4B15
:10A720001B78002B0AD06D4607F114040FCC0FC51F
:10A7300023682B603B1D0FCBFEF718F800BF2837AE
:10A74000BD46B0BDA00C00208C000020B0B590B07C
:10A7500006AF3B4B1B7B012B1ED1394BDA79384BB3
:10A760001A70374B1A7A364B5A70354B5A7A344B2B
:10A770009A70334B9A7A324BDA70314BDA7A304B2B
:10A780001A712F4B01225A712D4B5A7B2C4B9A7107
:10A790002B4B00221A7323E0294B9B79012B15D1F7
:10A7A000274B00221A70264BFF225A70244B00229E
:10A7B0009A70234B0022DA70214B00221A71204B31
:10A7C00001225A711E4B00229A7109E01C4B9B79A1
:10A7D000002B05D01A4B9B79013BDAB2184B9A71CA
:10A7E00008237B610023FB6040F205137B6000239C
:10A7F0003B6143233B774C237B770023BB770023CC
:10A80000FB77002387F82030452387F821304F233A
:10A8100087F82230462387F823300A4B5B78002BD9
:10A820000AD06D4607F114040FCC0FC523682B60C6
:10A830003B1D0FCBFDF79AFF00BF2837BD46B0BDCB
:10A84000B00C00208C00002080B485B000AF03461F
:10A85000B9607A60FB73FB7B213BC12B02F28087DE
:10A8600001A252F823F000BF71AB0008ADAB0008A5
:10A87000E3AB00087BAC000827AD0008A5AD0008DD
:10A8800043AE00085BAE0008A1AE0008E7AE0008CA
:10A890001DAF000873AF00089BAF0008C5AF0008EC
:10A8A000F7AF000861B00008F3B0000841B100083C
:10A8B000B3B100081BB2000887B2000815B3000846
:10A8C0009FB30008FDB3000897B4000825B5000841
:10A8D00041B500086FB50008A5B5000809B6000825
:10A8E0003FB600088FB6000865B70008FFB700083C
:10A8F00099B8000811B90008A3B9000831BA0008D6
:10A90000A1BA000833BB0008CDBB000853BC000847
:10A91000BFBC000841BD0008AFBD00085BBE000819
:10A9200023BF0008E9BF000869C0000837C100085C
:10A93000D5C100085DC20008BBC2000851C30008B1
:10A94000F7C30008A9C4000823C500087FC5000894
:10A950001DC6000883C60008EDC6000853C70008DE
:10A9600083C70008BFC7000861D7000861D7000887
:10A9700061D7000861D7000861D7000861D70008D7
:10A9800061D7000861D7000861D7000861D70008C7
:10A9900061D7000861D7000861D7000861D70008B7
:10A9A00061D7000861D7000861D7000861D70008A7
:10A9B00061D7000861D7000861D7000861D7000897
:10A9C00061D7000861D7000861D7000861D7000887
:10A9D000DDC7000823C8000869C80008AFC8000820
:10A9E00061D7000861D7000861D7000861D7000867
:10A9F00061D7000861D7000861D7000861D7000857
:10AA000061D7000861D7000861D7000861D7000846
:10AA100061D7000861D7000861D7000861D7000836
:10AA200061D7000861D7000861D7000861D7000826
:10AA300061D7000861D7000861D7000861D7000816
:10AA400061D7000861D7000861D7000861D7000806
:10AA500061D7000861D7000861D7000861D70008F6
:10AA600061D7000861D7000861D7000861D70008E6
:10AA700061D7000861D7000861D7000861D70008D6
:10AA800061D7000861D7000861D7000861D70008C6
:10AA900061D7000861D7000861D7000861D70008B6
:10AAA00061D7000861D7000861D7000861D70008A6
:10AAB00061D7000861D7000861D7000861D7000896
:10AAC00061D7000861D7000861D7000861D7000886
:10AAD00061D7000861D7000861D7000861D7000876
:10AAE00061D7000861D7000861D7000861D7000866
:10AAF00061D7000861D7000861D7000861D7000856
:10AB000061D70008F5C80008D7C9000869CA00085D
:10AB1000E1CA000841CB0008BFCB000807CC000801
:10AB200057CC0008DDCC00087FCD0008A1CD00087F
:10AB3000F9CD00086FCE0008DFCE000893CF0008E3
:10AB400055D000089FD00008F9D00008B5D1000802
:10AB50008BD200080DD3000893D300082DD4000831
:10AB6000FBD4000885D50008E3D50008C1D600084D
:10AB7000BB6850229A60BB68543350229A60BB680D
:10AB8000A83350229A60BB68FC3350229A60BB689D
:10AB900003F5A87350229A60BB6803F5FC7350223A
:10ABA0009A607B6806221A7002F0DEBDBB685022F4
:10ABB0009A60BB685022DA62BB68543350229A60B4
:10ABC000BB6854335022DA62BB68A83350225A6102
:10ABD000BB68A83350229A637B6802221A7002F085
:10ABE000C3BDBB68543350225A61BB6854335022F2
:10ABF000DA62BB68A83350229A60BB68A83350223F
:10AC00005A61BB68A83350221A62BB68A83350222D
:10AC1000DA62BB68A83350229A63BB68FC335022C7
:10AC20005A61BB68FC335022DA62BB6803F5A87333
:10AC300050229A60BB6803F5A87350225A61BB6822
:10AC400003F5A87350221A62BB6803F5A87350225B
:10AC5000DA62BB6803F5A87350229A63BB6803F5F8
:10AC6000D27350225A61BB6803F5D2735022DA6264
:10AC70007B6802221A7002F077BDBB683C225A61E1
:10AC8000BB6850221A62BB683C22DA62BB6854334C
:10AC90003C229A60BB68543350221A62BB6854331A
:10ACA0003C229A63BB68A8333C229A60BB68A833F5
:10ACB00050221A62BB68FC333C225A61BB68FC33E9
:10ACC00050221A62BB68FC333C22DA62BB6803F58F
:10ACD000A87350221A62BB6803F5A8733C229A63DA
:10ACE000BB6803F5D2733C229A60BB6803F5D2734C
:10ACF00050221A62BB6803F5D2733C229A63BB6888
:10AD000003F5FC733C225A61BB6803F5FC735022C7
:10AD10001A62BB6803F5FC733C22DA627B6802228C
:10AD20001A7002F021BDBB68543350229A60BB6890
:10AD3000543350225A61BB68543350229A63BB6823
:10AD4000A83350229A60BB68A83350225A61BB686E
:10AD5000A8335022DA62BB68FC3350221A62BB6807
:10AD600003F5A87350225A61BB6803F5A8735022FB
:10AD7000DA62BB6803F5A87350229A63BB6803F5D7
:10AD8000D27350229A60BB6803F5D2735022DA6204
:10AD9000BB6803F5D27350229A637B6802221A7053
:10ADA00002F0E2BCBB6850225A61BB6850221A62B2
:10ADB000BB68543350229A60BB6854335022DA6225
:10ADC000BB68A83350229A60BB68A8335022DA626D
:10ADD000BB68FC3350225A61BB68FC3350221A62B4
:10ADE000BB68FC3350225A64BB6803F5A873502239
:10ADF0009A60BB6803F5A87350221A62BB6803F51A
:10AE0000A87350229A63BB6803F5D27350229A60EC
:10AE1000BB6803F5D2735022DA62BB6803F5FC739A
:10AE200050225A61BB6803F5FC7350221A62BB685A
:10AE300003F5FC7350229A637B6801221A7002F0BA
:10AE400093BCBB6850229A60BB68543350229A600E
:10AE50007B6806221A7002F087BCBB6850221A6217
:10AE6000BB68543350225A61BB68A83350229A60A1
:10AE7000BB68FC3350229A60BB6803F5A87350226C
:10AE80009A60BB6803F5D27350225A61BB6803F520
:10AE9000FC7350221A627B6804221A7002F064BCB0
:10AEA000BB6850229A60BB68543350225A61BB6819
:10AEB000A83350221A62BB68FC3350221A62BB6866
:10AEC00003F5A87350221A62BB6803F5D2735022AF
:10AED0005A61BB6803F5FC7350229A607B680422B8
:10AEE0001A7002F041BCBB68A83350229A60BB685C
:10AEF000A83350221A62BB68FC3350225A61BB68E7
:10AF000003F5A87350229A60BB6803F5A87350221A
:10AF10001A627B6804221A7002F026BCBB685433A4
:10AF200050221A62BB68A83350221A62BB68FC33F5
:10AF300050229A60BB68FC3350225A61BB68FC33D4
:10AF400050221A62BB68FC335022DA62BB68FC33C1
:10AF500050229A63BB6803F5A87350221A62BB683B
:10AF600003F5D27350221A627B6802221A7002F033
:10AF7000FBBBBB6803F5A87350225A61BB6803F59D
:10AF8000D27350225A61BB6803F5FC7350229A6059
:10AF90007B6805221A7002F0E7BBBB68FC335022C5
:10AFA0009A60BB68FC3350225A61BB68FC33502264
:10AFB0001A62BB68FC335022DA627B6803221A7083
:10AFC00002F0D2BBBB6803F5D27350229A60BB6813
:10AFD00003F5D27350225A61BB6803F5FC7350220B
:10AFE0009A60BB6803F5FC7350225A617B680522A6
:10AFF0001A7002F0B9BBBB6850221A62BB685433A6
:10B000001A225A61BB68543350221A62BB68A833B3
:10B010003C225A61BB68A8331A221A62BB68FC330F
:10B0200050225A61BB6803F5A8731A229A60BB6864
:10B0300003F5A8733C225A61BB6803F5D273502212
:10B040009A60BB6803F5D2731A225A61BB6803F594
:10B05000FC7350229A607B6804221A7002F084BB51
:10B06000BB6850225A61BB6850221A62BB685022EA
:10B07000DA62BB68543350229A60BB685433502262
:10B080009A63BB68A83350229A60BB68A8335022E9
:10B090009A63BB68FC3350229A60BB68FC33502231
:10B0A0009A63BB6803F5A87350229A60BB6803F5E6
:10B0B000A87350229A63BB6803F5D27350229A603A
:10B0C000BB6803F5D27350229A63BB6803F5FC7327
:10B0D00050225A61BB6803F5FC7350221A62BB68A8
:10B0E00003F5FC735022DA627B6802221A7002F0C8
:10B0F0003BBBBB6850225A61BB68543350229A60F4
:10B10000BB68543350225A61BB68A83350225A613D
:10B11000BB68FC3350225A61BB6803F5A873502208
:10B120005A61BB6803F5D27350225A61BB6803F5BC
:10B13000FC7350225A617B6805221A7002F014BB1E
:10B14000BB6850225A61BB6850221A62BB685433F4
:10B1500050229A60BB6854335022DA62BB68A8332D
:10B160005022DA62BB68FC3350221A62BB6803F5D6
:10B17000A87350225A61BB6803F5D27350229A60BB
:10B18000BB6803F5FC7350229A60BB6803F5FC733F
:10B1900050225A61BB6803F5FC7350221A62BB68E7
:10B1A00003F5FC735022DA627B6803221A7002F006
:10B1B000DBBABB6850225A61BB6850221A62BB6876
:10B1C000543350229A60BB6854335022DA62BB6811
:10B1D000A8335022DA62BB68FC3350221A62BB6883
:10B1E00003F5A8735022DA62BB6803F5D2735022CC
:10B1F0009A60BB6803F5D2735022DA62BB6803F52C
:10B20000FC7350225A61BB6803F5FC7350221A622A
:10B210007B6803221A7002F0A7BABB6850229A60BA
:10B22000BB685022DA62BB68543350229A60BB6814
:10B2300054335022DA62BB68A83350229A60BB684C
:10B24000A8335022DA62BB68FC3350225A61BB68D3
:10B25000FC3350221A62BB68FC335022DA62BB68AE
:10B2600003F5A8735022DA62BB6803F5D27350224B
:10B27000DA62BB6803F5FC735022DA627B68032252
:10B280001A7002F071BABB6850229A60BB685022F3
:10B290005A61BB6850221A62BB685022DA62BB68EE
:10B2A000543350229A60BB68A83350229A60BB681E
:10B2B000FC3350229A60BB68FC3350225A61BB6851
:10B2C000FC3350221A62BB68FC335022DA62BB683E
:10B2D00003F5A8735022DA62BB6803F5D2735022DB
:10B2E000DA62BB6803F5FC7350229A60BB6803F511
:10B2F000FC7350225A61BB6803F5FC7350221A623A
:10B30000BB6803F5FC735022DA627B6803221A7073
:10B3100002F02ABABB6850225A61BB6850221A62F6
:10B32000BB685022DA62BB68543350229A60BB6813
:10B33000A83350229A60BB68FC3350229A60BB68E5
:10B34000FC3350221A62BB68FC335022DA62BB68BD
:10B3500003F5A87350229A60BB6803F5A8735022C6
:10B360009A63BB6803F5D27350229A60BB6803F5F9
:10B37000D27350229A63BB6803F5FC7350225A6162
:10B38000BB6803F5FC7350221A62BB6803F5FC73BB
:10B390005022DA627B6802221A7002F0E5B9BB68BB
:10B3A00050229A60BB6850225A61BB6850221A62D0
:10B3B000BB685022DA62BB6850229A63BB68543380
:10B3C00050229A63BB68A8335022DA62BB68FC3310
:10B3D00050221A62BB6803F5A87350221A62BB6838
:10B3E00003F5D27350225A61BB6803F5FC735022F7
:10B3F0005A617B6802221A7002F0B6B9BB6850220B
:10B400005A61BB6850221A62BB685022DA62BB687C
:10B41000543350229A60BB68543350229A63BB68FD
:10B42000A83350229A60BB68A83350229A63BB6845
:10B43000FC3350225A61BB68FC3350221A62BB684D
:10B44000FC335022DA62BB6803F5A87350229A607D
:10B45000BB6803F5A87350229A63BB6803F5D273E7
:10B4600050229A60BB6803F5D27350229A63BB687E
:10B4700003F5FC7350225A61BB6803F5FC7350223C
:10B480001A62BB6803F5FC735022DA627B68022201
:10B490001A7002F069B9BB6850225A61BB68502229
:10B4A0001A62BB685022DA62BB68543350229A6039
:10B4B000BB68543350229A63BB68A83350229A6009
:10B4C000BB68A83350229A63BB68FC3350225A6190
:10B4D000BB68FC3350221A62BB68FC335022DA622C
:10B4E000BB68FC3350229A63BB6803F5A8735022F3
:10B4F0009A63BB6803F5D27350229A63BB6803F565
:10B50000FC7350225A61BB6803F5FC7350221A6227
:10B51000BB6803F5FC735022DA627B6802221A7062
:10B5200002F022B9BB68543350229A60BB6803F51D
:10B53000D27350229A607B6805221A7002F014B907
:10B54000BB6850225A61BB6803F5A87350225A6148
:10B55000BB6803F5D27350225A61BB6803F5D273FE
:10B5600050229A607B6804221A7002F0FDB8BB6812
:10B57000543350221A62BB68A83350225A61BB6808
:10B58000FC3350229A60BB6803F5A87350225A61BD
:10B59000BB6803F5D27350221A627B6804221A70CA
:10B5A00002F0E2B8BB68A83350229A60BB68A833A7
:10B5B00050225A61BB68A83350221A62BB68A83374
:10B5C0005022DA62BB68A83350229A63BB6803F545
:10B5D000A87350229A60BB6803F5A87350225A6181
:10B5E000BB6803F5A87350221A62BB6803F5A87301
:10B5F0005022DA62BB6803F5A87350229A637B6815
:10B6000002221A7002F0B0B8BB68543350229A601C
:10B61000BB68A83350225A61BB68FC3350221A62BF
:10B62000BB6803F5A87350225A61BB6803F5D27357
:10B6300050229A607B6804221A7002F095B8BB68A9
:10B6400050225A61BB6850221A62BB685022DA62EB
:10B65000BB68543350229A60BB68543350229A63BB
:10B66000BB68A83350229A63BB68FC335022DA626D
:10B67000BB6803F5A87350221A62BB6803F5FC731C
:10B6800050221A627B6802221A7002F06DB8BB6801
:10B6900050225A61BB6850221A62BB685022DA629B
:10B6A000BB6850229A63BB68543350229A60BB68CF
:10B6B000543350225A64BB68A83350229A60BB6846
:10B6C000A83350221A62BB68A8335022DA62BB68E2
:10B6D000A83350225A64BB68FC3350229A60BB687E
:10B6E000FC3350221A62BB68FC3350229A63BB6859
:10B6F000FC3350225A64BB6803F5A87350229A6049
:10B70000BB6803F5A87350221A62BB6803F5A873DF
:10B710005022DA62BB6803F5A87350229A63BB68B3
:10B7200003F5A87350225A64BB6803F5D273502204
:10B730009A60BB6803F5FC7350225A61BB6803F53D
:10B74000FC7350221A62BB6803F5FC735022DA6264
:10B75000BB6803F5FC7350229A637B6801221A7060
:10B7600002F002B8BB6850221A62BB685433502200
:10B770005A61BB6854335022DA62BB68A833502246
:10B780009A60BB68A83350229A63BB68FC3350228E
:10B790009A60BB68FC3350229A63BB6803F5A873B8
:10B7A00050229A60BB6803F5A87350225A61BB68A7
:10B7B00003F5A87350221A62BB6803F5A8735022E0
:10B7C000DA62BB6803F5A87350229A63BB6803F57D
:10B7D000D27350229A60BB6803F5D27350229A63E9
:10B7E000BB6803F5FC7350229A60BB6803F5FC73D9
:10B7F00050229A637B6802221A7001F0B5BFBB68C1
:10B8000050229A60BB6850225A61BB6850221A626B
:10B81000BB68543350229A60BB6854335022DA62BA
:10B82000BB68A83350229A60BB68A8335022DA6202
:10B83000BB68FC3350229A60BB68FC3350225A61CB
:10B84000BB68FC3350221A62BB6803F5A873502210
:10B850009A60BB6803F5A8735022DA62BB6803F5EF
:10B86000D27350229A60BB6803F5D2735022DA6219
:10B87000BB6803F5FC7350229A60BB6803F5FC7348
:10B8800050225A61BB6803F5FC7350221A627B6830
:10B8900003221A7001F068BFBB6850225A61BB686E
:10B8A00050221A62BB685022DA62BB6854335022BD
:10B8B0009A60BB68543350229A63BB68A833502205
:10B8C0009A60BB68FC3350229A60BB6803F5A8738A
:10B8D00050229A60BB6803F5D27350229A60BB680D
:10B8E00003F5D27350229A63BB6803F5FC735022B0
:10B8F0005A61BB6803F5FC7350221A62BB6803F5FA
:10B90000FC735022DA627B6802221A7001F02CBFAD
:10B91000BB6850229A60BB6850225A61BB685022B3
:10B920001A62BB68543350229A60BB685433502269
:10B93000DA62BB68A83350229A60BB68A8335022F1
:10B940009A63BB68FC3350229A60BB68FC33502278
:10B950009A63BB6803F5A87350229A60BB6803F52D
:10B96000A87350229A63BB6803F5D27350229A6081
:10B97000BB6803F5D2735022DA62BB6803F5FC732F
:10B9800050229A60BB6803F5FC7350225A61BB6871
:10B9900003F5FC7350221A627B6802221A7001F0D0
:10B9A000E3BEBB6850229A60BB6850225A61BB68F4
:10B9B00050221A62BB685022DA62BB6854335022AC
:10B9C0009A60BB68A83350229A60BB68FC3350224F
:10B9D0009A60BB68FC3350225A61BB68FC3350222A
:10B9E0001A62BB68FC335022DA62BB6803F5A873A5
:10B9F00050229A60BB6803F5D27350229A60BB68EC
:10BA000003F5FC7350229A60BB6803F5FC73502267
:10BA10005A61BB6803F5FC7350221A62BB6803F5D8
:10BA2000FC735022DA627B6803221A7001F09CBE1C
:10BA3000BB6850229A60BB6850225A61BB68502292
:10BA40001A62BB685022DA62BB68543350229A6093
:10BA5000BB68A83350229A60BB68FC3350229A60BE
:10BA6000BB68FC3350225A61BB68FC3350221A6217
:10BA7000BB68FC335022DA62BB6803F5A87350221E
:10BA80009A60BB6803F5D27350229A60BB6803F5D5
:10BA9000FC7350229A607B6803221A7001F064BE26
:10BAA000BB6850225A61BB6850221A62BB685022A0
:10BAB000DA62BB68543350229A60BB685433502218
:10BAC0009A63BB68A83350229A60BB68FC3350224B
:10BAD0009A60BB68FC3350221A62BB68FC33502268
:10BAE000DA62BB6803F5A87350229A60BB6803F55D
:10BAF000A87350229A63BB6803F5D27350229A60F0
:10BB0000BB6803F5D27350229A63BB6803F5FC73DC
:10BB100050225A61BB6803F5FC7350221A62BB685D
:10BB200003F5FC735022DA627B6802221A7001F07E
:10BB30001BBEBB6850229A60BB6850229A63BB68E8
:10BB4000543350229A60BB68543350229A63BB68C6
:10BB5000A83350229A60BB68A83350229A63BB680E
:10BB6000FC3350229A60BB68FC3350225A61BB6898
:10BB7000FC3350221A62BB68FC335022DA62BB6885
:10BB8000FC3350229A63BB6803F5A87350229A6075
:10BB9000BB6803F5A87350229A63BB6803F5D273A0
:10BBA00050229A60BB6803F5D27350229A63BB6837
:10BBB00003F5FC7350229A60BB6803F5FC735022B6
:10BBC0009A637B6802221A7001F0CEBDBB685022D6
:10BBD0009A60BB6850225A61BB6850221A62BB68E7
:10BBE0005022DA62BB6850229A63BB6854335022F9
:10BBF0001A62BB68A83350221A62BB68FC33502219
:10BC00001A62BB6803F5A87350221A62BB6803F579
:10BC1000D27350221A62BB6803F5FC7350229A60FB
:10BC2000BB6803F5FC7350225A61BB6803F5FC73D3
:10BC300050221A62BB6803F5FC735022DA62BB68BB
:10BC400003F5FC7350229A637B6802221A7001F09C
:10BC50008BBDBB6850225A61BB6850221A62BB6818
:10BC60005022DA62BB6850229A63BB685433502278
:10BC7000DA62BB68A8335022DA62BB68FC33502218
:10BC8000DA62BB6803F5A8735022DA62BB6803F579
:10BC9000D27350229A60BB6803F5D2735022DA62E5
:10BCA000BB6803F5FC7350225A61BB6803F5FC7353
:10BCB00050221A627B6802221A7001F055BDBB68DF
:10BCC00050229A60BB6850229A63BB68543350225A
:10BCD0009A60BB6854335022DA62BB68A8335022A2
:10BCE0009A60BB68A83350221A62BB68FC335022AA
:10BCF0009A60BB68FC3350225A61BB6803F5A87395
:10BD000050229A60BB6803F5A87350221A62BB6880
:10BD100003F5D27350229A60BB6803F5D2735022A8
:10BD2000DA62BB6803F5FC7350229A60BB6803F5C6
:10BD3000FC7350229A637B6802221A7001F014BDD2
:10BD4000BB6850229A60BB68543350229A60BB682B
:10BD5000A83350229A60BB68FC3350229A60BB68BB
:10BD600003F5A87350229A60BB6803F5D273502282
:10BD70009A60BB6803F5FC7350229A60BB6803F5B8
:10BD8000FC7350225A61BB6803F5FC7350221A629F
:10BD9000BB6803F5FC735022DA62BB6803F5FC73E1
:10BDA00050229A637B6802221A7001F0DDBCBB68E6
:10BDB00050225A61BB6850225A64BB6854335022E7
:10BDC0009A60BB68543350221A62BB6854335022C5
:10BDD0009A63BB68543350221A65BB68A83350225B
:10BDE0009A60BB68A8335022DA62BB68A83350223D
:10BDF0001A65BB68FC3350229A60BB68FC33502242
:10BE0000DA62BB68FC3350221A65BB6803F5A8737D
:10BE100050229A60BB6803F5A8735022DA62BB68AF
:10BE200003F5A87350221A65BB6803F5D27350223C
:10BE30009A60BB6803F5D27350221A65BB6803F59C
:10BE4000FC7350229A60BB6803F5FC7350221A659C
:10BE50007B6800221A7001F087BCBB6850229A6090
:10BE6000BB6850225A64BB68543350229A60BB6846
:10BE7000543350225A61BB68543350225A64BB6811
:10BE8000A83350229A60BB68A83350225A61BB681D
:10BE9000A83350221A62BB68A83350225A64BB6888
:10BEA000FC3350229A60BB68FC3350221A62BB6894
:10BEB000FC335022DA62BB68FC3350225A64BB6800
:10BEC00003F5A87350229A60BB6803F5A87350224B
:10BED000DA62BB6803F5A87350229A63BB6803F566
:10BEE000A87350225A64BB6803F5D27350229A603B
:10BEF000BB6803F5D27350229A63BB6803F5D27313
:10BF000050225A64BB6803F5FC7350229A60BB68E8
:10BF100003F5FC7350225A647B6801221A7001F009
:10BF200023BCBB6850225A61BB6850221A62BB68AE
:10BF30005022DA62BB6850229A63BB6854335022A5
:10BF40009A60BB68543350225A61BB685433502204
:10BF50009A63BB68543350225A64BB68A83350229A
:10BF60009A60BB68A83350225A64BB68FC335022E5
:10BF70009A60BB68FC3350225A64BB6803F5A8730F
:10BF800050229A60BB6803F5A87350225A64BB68BC
:10BF900003F5D27350229A60BB6803F5D273502226
:10BFA0005A61BB6803F5D27350229A63BB6803F5EC
:10BFB000D27350225A64BB6803F5FC7350225A6155
:10BFC000BB6803F5FC7350221A62BB6803F5FC736F
:10BFD0005022DA62BB6803F5FC7350229A637B68D7
:10BFE00001221A7001F0C0BBBB6850229A60BB6886
:10BFF00050225A61BB6850221A62BB685022DA6232
:10C00000BB68543350229A60BB68543350229A6301
:10C01000BB68A83350229A60BB68A83350229A6349
:10C02000BB68FC3350229A60BB68FC3350225A61D3
:10C03000BB68FC3350221A62BB68FC335022DA62C0
:10C04000BB6803F5A87350229A60BB6803F5D273EE
:10C0500050229A60BB6803F5FC7350229A607B689B
:10C0600002221A7001F080BBBB6850225A61BB6883
:10C0700050221A62BB685022DA62BB6850229A636F
:10C08000BB68543350229A60BB68543350225A61C3
:10C09000BB68543350229A63BB68543350225A64AD
:10C0A000BB68A83350229A60BB68A83350225A64F8
:10C0B000BB68FC3350229A60BB68FC335022DA62C2
:10C0C000BB68FC3350225A64BB6803F5A873502246
:10C0D0009A60BB6803F5A8735022DA62BB6803F567
:10C0E000A87350225A64BB6803F5D27350229A6039
:10C0F000BB6803F5D27350225A61BB6803F5D27353
:10C1000050229A63BB6803F5FC7350225A61BB68E6
:10C1100003F5FC7350221A62BB6803F5FC735022CE
:10C12000DA62BB6803F5FC7350225A647B68012213
:10C130001A7001F019BBBB6850229A60BB6850228C
:10C140005A61BB6850221A62BB685022DA62BB682F
:10C15000543350229A60BB68543350229A63BB68B0
:10C16000A83350229A60BB68A83350229A63BB68F8
:10C17000FC3350229A60BB68FC3350225A61BB6882
:10C18000FC3350221A62BB68FC335022DA62BB686F
:10C1900003F5A87350229A60BB6803F5A873502278
:10C1A0001A62BB6803F5D27350229A60BB6803F52C
:10C1B000D2735022DA62BB6803F5FC7350229A6096
:10C1C000BB6803F5FC7350229A637B6802221A70E5
:10C1D00001F0CABABB6850225A61BB6850221A6289
:10C1E000BB685022DA62BB68543350229A60BB6845
:10C1F000543350229A63BB68A83350229A60BB68BC
:10C20000FC3350225A61BB68FC3350221A62BB686F
:10C21000FC335022DA62BB6803F5A87350229A639C
:10C22000BB6803F5D27350229A60BB6803F5D273E2
:10C2300050229A63BB6803F5FC7350225A61BB68B5
:10C2400003F5FC7350221A62BB6803F5FC7350229D
:10C25000DA627B6802221A7001F086BABB6850224B
:10C260009A60BB6850225A61BB6850221A62BB6850
:10C270005022DA62BB6850229A63BB685433502262
:10C280001A62BB68A83350221A62BB68FC33502282
:10C290001A62BB6803F5A87350221A62BB6803F5E3
:10C2A000D27350221A62BB6803F5FC7350221A62E3
:10C2B0007B6802221A7001F057BABB6850229A605C
:10C2C000BB6850225A64BB68543350229A60BB68E2
:10C2D000543350225A64BB68A83350229A60BB681A
:10C2E000A83350225A64BB68FC3350229A60BB6862
:10C2F000FC3350225A64BB6803F5A87350229A603D
:10C30000BB6803F5A87350225A64BB6803F5D27367
:10C3100050229A60BB6803F5D27350225A64BB68FE
:10C3200003F5FC7350225A61BB6803F5FC7350227D
:10C330001A62BB6803F5FC735022DA62BB6803F52E
:10C34000FC7350229A637B6801221A7001F00CBAC8
:10C35000BB6850229A60BB6850221A65BB68543390
:10C3600050229A60BB68543350221A65BB68A833C8
:10C3700050229A60BB68A83350225A61BB68A83328
:10C3800050225A64BB68A83350221A65BB68FC333C
:10C3900050225A61BB68FC3350225A64BB6803F5D3
:10C3A000A87350225A61BB6803F5A87350221A6221
:10C3B000BB6803F5A87350229A63BB6803F5A873A2
:10C3C00050225A64BB6803F5D27350221A62BB68CC
:10C3D00003F5D2735022DA62BB6803F5D2735022A0
:10C3E0009A63BB6803F5FC735022DA627B68002213
:10C3F0001A7001F0B9B9BB6850229A60BB6850222C
:10C400001A65BB68543350229A60BB68543350227B
:10C410001A65BB68A83350229A60BB68A8335022C3
:10C420001A65BB68FC3350229A60BB68FC3350220B
:10C43000DA62BB68FC3350221A65BB6803F5A87347
:10C4400050229A60BB6803F5A8735022DA62BB6879
:10C4500003F5A87350221A65BB6803F5D273502206
:10C460009A60BB6803F5D2735022DA62BB6803F5A9
:10C47000D27350221A65BB6803F5FC7350225A61CF
:10C48000BB6803F5FC7350221A62BB6803F5FC73AA
:10C4900050229A63BB6803F5FC7350225A647B6890
:10C4A00000221A7001F060B9BB6850229A60BB6824
:10C4B00050221A65BB68543350225A61BB6854330A
:10C4C00050225A64BB68A83350221A62BB68A83352
:10C4D00050229A63BB68FC335022DA62BB6803F5D2
:10C4E000A87350221A62BB6803F5A87350229A639E
:10C4F000BB6803F5D27350225A61BB6803F5D2734F
:10C5000050225A64BB6803F5FC7350229A60BB68E2
:10C5100003F5FC7350221A657B6800221A7001F043
:10C5200023B9BB6850229A60BB6850229A63BB68EB
:10C53000543350229A60BB68543350229A63BB68CC
:10C54000A83350225A61BB68A8335022DA62BB6814
:10C55000FC3350221A62BB6803F5A87350221A629A
:10C56000BB6803F5D27350221A62BB6803F5FC73F3
:10C5700050221A627B6802221A7001F0F5B8BB687B
:10C5800050229A60BB6850225A61BB6850221A62DE
:10C59000BB685022DA62BB6850229A63BB685022A3
:10C5A0005A64BB68543350225A64BB68A833502283
:10C5B0009A63BB68FC3350221A62BB68FC3350227A
:10C5C000DA62BB6803F5A87350225A61BB6803F5B1
:10C5D000D27350229A60BB6803F5FC7350229A60B4
:10C5E000BB6803F5FC7350225A61BB6803F5FC730A
:10C5F00050221A62BB6803F5FC735022DA62BB68F2
:10C6000003F5FC7350229A63BB6803F5FC73502258
:10C610005A647B6801221A7001F0A6B8BB685022E8
:10C620009A60BB6850225A61BB6850221A62BB688C
:10C63000543350229A60BB68A83350229A60BB687A
:10C64000FC3350229A60BB6803F5A87350229A60AD
:10C65000BB6803F5D27350229A60BB6803F5FC7384
:10C6600050229A60BB6803F5FC7350225A61BB6884
:10C6700003F5FC7350221A627B6804221A7001F0E1
:10C6800073B8BB6850229A60BB68543350229A60DA
:10C69000BB6854331A225A61BB68A8331A229A60C5
:10C6A000BB68A8333C225A61BB68FC3350225A61F4
:10C6B000BB6803F5A8733C225A61BB6803F5A873F5
:10C6C0001A221A62BB6803F5D2731A225A61BB6838
:10C6D00003F5D27350221A62BB6803F5FC73502233
:10C6E0001A627B6804221A7001F03EB8BB685022BF
:10C6F0009A60BB6850225A61BB6850221A62BB68BC
:10C70000543350221A62BB68A83350221A62BB68A5
:10C71000FC3350221A62BB6803F5A87350221A62D8
:10C72000BB6803F5D27350221A62BB6803F5FC7331
:10C7300050229A60BB6803F5FC7350225A61BB68B3
:10C7400003F5FC7350221A627B6804221A7001F010
:10C750000BB8BB6850221A62BB68543350225A612E
:10C76000BB6854335022DA62BB68A83350229A6007
:10C77000BB68A83350229A637B6802221A7000F0CB
:10C78000F3BFBB6803F5FC7350229A60BB6803F5E6
:10C79000FC7350225A61BB6803F5FC7350221A6285
:10C7A000BB6803F5FC735022DA62BB6803F5FC73C7
:10C7B00050229A637B6802221A7000F0D5BFBB68D2
:10C7C00050229A60BB6850225A61BB685433502291
:10C7D0001A627B6804221A7000F0C6BFBB68502240
:10C7E0001A62BB68543350225A61BB68A833502286
:10C7F0005A61BB68FC3350229A60BB6803F5A8738A
:10C8000050225A61BB6803F5D27350225A61BB684B
:10C8100003F5FC7350221A627B6804221A7000F040
:10C82000A3BFBB6850229A60BB68543350229A6001
:10C83000BB68A83350229A60BB68FC3350229A60D0
:10C84000BB6803F5A87350229A60BB6803F5D273E6
:10C8500050229A60BB6803F5FC7350229A607B6893
:10C8600006221A7000F080BFBB6850229A60BB6835
:10C87000543350225A61BB68A83350225A61BB68B6
:10C88000FC3350221A62BB6803F5A87350225A6128
:10C89000BB6803F5D27350225A61BB6803F5FC7381
:10C8A00050229A607B6804221A7000F05DBFBB685A
:10C8B000A83350225A61BB68A83350221A62BB6861
:10C8C000FC3350229A60BB68FC335022DA62BB68AA
:10C8D000FC3350221A65BB6803F5A87350229A6393
:10C8E000BB6803F5A87350225A647B6800221A7053
:10C8F00000F03ABFBB68543350221A65BB6854330A
:10C9000050225A64BB68543350221A62BB685433B5
:10C9100050225A61BB68543350229A60BB68A833D6
:10C9200050225A64BB68A83350229A63BB68A8336C
:10C9300050225A61BB68A83350229A60BB68FC330E
:10C9400050229A63BB68FC335022DA62BB68FC3326
:10C9500050225A61BB6803F5A87350225A64BB6821
:10C9600003F5A8735022DA62BB6803F5A87350225E
:10C970001A62BB6803F5D27350221A65BB6803F5CF
:10C98000D27350225A64BB6803F5D27350221A62E4
:10C99000BB6803F5D27350225A61BB6803F5FC7380
:10C9A00050221A65BB6803F5FC7350225A64BB68B9
:10C9B00003F5FC7350229A63BB6803F5FC735022A5
:10C9C0005A61BB6803F5FC7350229A607B680022B1
:10C9D0001A7000F0C9BEBB68543350225A64BB6859
:10C9E000543350229A63BB6854335022DA62BB68D6
:10C9F000543350221A62BB68543350225A61BB68C8
:10CA0000A83350225A61BB68FC3350225A61BB687C
:10CA100003F5A87350225A61BB6803F5D273502204
:10CA20005A61BB6803F5FC7350225A64BB6803F576
:10CA3000FC7350229A63BB6803F5FC735022DA62E0
:10CA4000BB6803F5FC7350221A62BB6803F5FC73E4
:10CA500050225A61BB6803F5FC7350229A607B68D0
:10CA600001221A7000F080BEBB6854335022DA6293
:10CA7000BB68543350221A62BB68543350225A6147
:10CA8000BB68A83350229A60BB68FC3350229A607E
:10CA9000BB6803F5A87350221A62BB6803F5A8733C
:10CAA00050225A61BB6803F5A87350229A60BB6894
:10CAB00003F5D2735022DA62BB6803F5D2735022B9
:10CAC0009A60BB6803F5FC735022DA62BB6803F519
:10CAD000FC7350229A607B6803221A7000F044BEF7
:10CAE000BB68543350229A63BB6854335022DA62D5
:10CAF000BB68543350221A62BB68543350225A61C7
:10CB0000BB68543350229A60BB68A83350225A61E4
:10CB1000BB68FC3350225A61BB6803F5A8735022EE
:10CB20005A61BB6803F5D27350225A61BB6803F5A2
:10CB3000FC7350225A617B6802221A7000F014BE06
:10CB4000BB68543350229A63BB6854335022DA6274
:10CB5000BB68543350221A62BB68543350225A6166
:10CB6000BB68543350229A60BB68A83350229A6045
:10CB7000BB68FC3350229A60BB6803F5A87350224F
:10CB80009A63BB6803F5A87350229A60BB6803F5EB
:10CB9000D27350229A63BB6803F5D27350229A6015
:10CBA000BB6803F5FC7350229A63BB6803F5FC7302
:10CBB00050229A607B6802221A7000F0D5BDBB68D3
:10CBC000543350225A61BB68543350229A60BB6878
:10CBD000A83350229A60BB68FC3350229A60BB682D
:10CBE00003F5A87350229A60BB6803F5D2735022F4
:10CBF0009A60BB6803F5FC7350229A607B6805223B
:10CC00001A7000F0B1BDBB6854335022DA62BB68C1
:10CC1000543350221A62BB68A83350225A61BB6851
:10CC2000FC3350221A62BB68FC3350229A60BB6806
:10CC300003F5A87350221A62BB6803F5D273502221
:10CC40001A62BB6803F5FC7350221A627B680322E8
:10CC50001A7000F089BDBB68543350229A63BB68D8
:10CC600054335022DA62BB68543350221A62BB68D4
:10CC7000543350225A61BB68A83350229A63BB6870
:10CC8000A83350229A60BB68FC3350229A63BB6879
:10CC9000FC3350229A60BB6803F5A87350229A6354
:10CCA000BB6803F5A87350229A60BB6803F5D27382
:10CCB00050229A63BB6803F5D27350229A60BB6816
:10CCC00003F5FC7350229A63BB6803F5FC73502292
:10CCD0009A607B6802221A7000F046BDBB6854332C
:10CCE00050229A63BB68543350225A61BB68A83300
:10CCF00050225A64BB68A83350221A62BB68A8331A
:10CD000050225A61BB68A83350229A60BB68FC333A
:10CD100050225A64BB68FC335022DA62BB68FC3391
:10CD200050229A60BB6803F5A87350225A64BB680E
:10CD300003F5A87350229A60BB6803F5D2735022A2
:10CD40005A64BB6803F5D27350229A60BB6803F53E
:10CD5000FC7350229A63BB6803F5FC735022DA62BD
:10CD6000BB6803F5FC7350221A62BB6803F5FC73C1
:10CD700050225A617B6801221A7000F0F5BCBB6832
:10CD8000543350225A61BB68543350229A60BB68B6
:10CD9000A83350229A607B6805221A7000F0E4BC28
:10CDA000BB685022DA62BB6850221A62BB6850220C
:10CDB0005A61BB6850229A60BB68543350229A6013
:10CDC000BB68A83350229A60BB68FC3350229A603B
:10CDD000BB6803F5A87350229A60BB6803F5D27351
:10CDE00050229A60BB6803F5FC7350229A607B68FE
:10CDF00003221A7000F0B8BCBB68543350229A6307
:10CE0000BB6854335022DA62BB68543350221A6232
:10CE1000BB68543350225A61BB68A83350229A60D1
:10CE2000BB68FC3350229A60BB6803F5A87350229C
:10CE30009A60BB6803F5D27350229A60BB6803F511
:10CE4000FC7350229A63BB6803F5FC735022DA62CC
:10CE5000BB6803F5FC7350221A62BB6803F5FC73D0
:10CE600050225A617B6802221A7000F07DBCBB68B8
:10CE700050229A63BB68543350229A63BB68543380
:10CE80005022DA62BB68543350221A62BB685433B2
:10CE900050225A61BB68543350229A60BB68A83351
:10CEA00050229A60BB68FC3350229A60BB6803F53D
:10CEB000A87350221A62BB6803F5A87350225A6106
:10CEC000BB6803F5D2735022DA62BB6803F5FC73CA
:10CED0005022DA627B6802221A7000F045BCBB68FF
:10CEE000543350225A64BB68543350229A63BB684F
:10CEF00054335022DA62BB68543350221A62BB6842
:10CF0000543350225A61BB68A83350225A64BB681C
:10CF1000A83350229A60BB68FC3350225A64BB6825
:10CF2000FC3350229A60BB6803F5A87350225A6400
:10CF3000BB6803F5A87350229A60BB6803F5D273EF
:10CF400050225A64BB6803F5D27350229A60BB68C2
:10CF500003F5FC7350225A64BB6803F5FC7350223E
:10CF60009A63BB6803F5FC735022DA62BB6803F571
:10CF7000FC7350221A62BB6803F5FC7350225A619D
:10CF8000BB6803F5FC7350229A607B6801221A701B
:10CF9000EAE3BB68543350225A64BB6854332822F6
:10CFA0009A63BB68543350221A62BB6854335022D0
:10CFB0005A61BB68A83328225A64BB68A833502240
:10CFC0009A63BB68A8335022DA62BB68A833502248
:10CFD0001A62BB68A83350225A61BB68A83350223A
:10CFE0009A60BB68FC3350229A63BB68FC335022C2
:10CFF0009A60BB6803F5A87350225A64BB6803F5B6
:10D00000A87350229A63BB6803F5A87350229A60F4
:10D01000BB6803F5D27350225A64BB6803F5D27320
:10D0200050229A60BB6803F5FC7350225A64BB68B7
:10D0300003F5FC7350221A62BB6803F5FC7350229F
:10D040005A61BB6803F5FC7350229A607B68012229
:10D050001A7089E3BB6850225A61BB6850229A60FB
:10D06000BB68543350229A60BB68A83350229A6040
:10D07000BB68FC3350229A60BB6803F5A87350224A
:10D080009A60BB6803F5D27350229A60BB6803F5BF
:10D09000FC7350229A607B6805221A7064E3BB68B7
:10D0A000543350221A62BB68543350225A61BB6811
:10D0B000A83350229A60BB68FC3350229A60BB6848
:10D0C00003F5A87350229A60BB6803F5D27350220F
:10D0D0009A60BB6803F5FC7350221A62BB6803F5C3
:10D0E000FC7350225A61BB6803F5FC7350229A60AE
:10D0F0007B6804221A7037E3BB68543350225A64A9
:10D10000BB68543350229A63BB6854335022DA62AE
:10D11000BB68543350221A62BB68543350225A61A0
:10D12000BB68A83350225A64BB68A83350225A61A6
:10D13000BB68A83350229A60BB68FC3350225A6403
:10D14000BB68FC3350229A60BB6803F5A873502279
:10D150005A64BB6803F5A87350229A60BB6803F554
:10D16000D27350225A64BB6803F5D27350229A637B
:10D17000BB6803F5D27350225A61BB6803F5D273C2
:10D1800050229A60BB6803F5FC7350229A63BB6817
:10D1900003F5FC735022DA62BB6803F5FC7350227E
:10D1A0001A62BB6803F5FC7350225A617B68012246
:10D1B0001A70D9E2BB68543350221A65BB685433E5
:10D1C00050225A64BB68543350221A62BB685433ED
:10D1D00050225A61BB68A83350221A65BB68A83335
:10D1E00050225A64BB68A83350229A63BB68A833A4
:10D1F00050221A62BB68A83350225A61BB68A83318
:10D2000050229A60BB68FC3350229A63BB68FC339F
:10D2100050225A61BB6803F5A8735022DA62BB68DA
:10D2200003F5A87350225A61BB6803F5D2735022EC
:10D230001A65BB6803F5D2735022DA62BB6803F546
:10D24000D27350221A62BB6803F5D27350225A611E
:10D25000BB6803F5FC7350221A65BB6803F5FC73C9
:10D2600050225A64BB6803F5FC7350229A63BB6872
:10D2700003F5FC735022DA62BB6803F5FC7350229D
:10D280001A627B6800221A706EE2BB685433502227
:10D290005A64BB68543350229A63BB68543350229B
:10D2A000DA62BB68543350221A62BB68A83350223A
:10D2B0005A64BB68A83350225A61BB68FC335022C1
:10D2C0005A64BB68FC335022DA62BB68FC335022DC
:10D2D0005A61BB6803F5A87350229A63BB6803F5D3
:10D2E000A87350225A61BB6803F5D27350225A6169
:10D2F000BB6803F5FC7350225A61BB6803F5FC73ED
:10D3000050229A607B6801221A702DE2BB68543368
:10D310005022DA62BB68543350221A62BB6854331D
:10D3200050225A61BB68A83350229A63BB68A83365
:10D3300050229A60BB68FC3350229A63BB68FC336E
:10D3400050229A60BB6803F5A8735022DA62BB686A
:10D3500003F5A87350229A60BB6803F5D27350227C
:10D360009A60BB6803F5FC7350229A63BB6803F5AF
:10D37000FC735022DA62BB6803F5FC7350221A6218
:10D38000BB6803F5FC7350225A617B6802221A7055
:10D39000EAE1BB6850225A64BB6850229A63BB68BA
:10D3A00050221A62BB6850225A61BB685433502223
:10D3B0005A64BB68543350229A63BB68543350227A
:10D3C0001A62BB68543350225A61BB6854335022EE
:10D3D0009A60BB68A83350229A63BB68A833502276
:10D3E0005A61BB68FC3350229A63BB68FC335022FD
:10D3F0001A62BB6803F5A87350229A63BB6803F5F1
:10D40000A8735022DA62BB6803F5D27350229A6384
:10D41000BB6803F5FC7350229A63BB6803F5FC7389
:10D420005022DA627B6801221A709DE1BB68543396
:10D4300050221A65BB68543350225A64BB68543377
:10D4400050221A62BB68543350225A61BB68A83319
:10D4500050221A65BB68A83350225A64BB68A833AF
:10D4600050229A63BB68A83350221A62BB68A83363
:10D4700050225A61BB68FC3350229A63BB68FC336C
:10D4800050225A61BB6803F5A8735022DA62BB6868
:10D4900003F5A87350221A62BB6803F5D2735022B9
:10D4A000DA62BB6803F5D27350221A62BB6803F5D7
:10D4B000FC7350221A65BB6803F5FC7350225A6452
:10D4C000BB6803F5FC7350229A63BB6803F5FC73D9
:10D4D0005022DA62BB6803F5FC7350221A62BB6803
:10D4E00003F5FC7350225A61BB6803F5FC735022AC
:10D4F0009A607B6800221A7036E1BB6850229A63FA
:10D50000BB685022DA62BB6850221A62BB685022A4
:10D510005A61BB6850229A60BB68543350229A60AB
:10D52000BB68A83350225A61BB68A83350229A6066
:10D53000BB68FC3350229A63BB68FC3350225A61AB
:10D54000BB6803F5A87350229A63BB6803F5A87300
:10D5500050221A62BB6803F5A87350225A61BB6857
:10D5600003F5D27350229A63BB6803F5D27350223D
:10D570001A62BB6803F5FC7350229A637B6802222F
:10D580001A70F1E0BB68543350229A63BB6854337D
:10D590005022DA62BB68543350221A62BB6854339B
:10D5A00050225A61BB68A83350225A61BB68A83325
:10D5B00050229A60BB68FC3350229A60BB6803F526
:10D5C000A87350229A60BB6803F5D27350229A6008
:10D5D000BB6803F5FC7350229A607B6802221A70C4
:10D5E000C2E0BB68543350221A65BB6854335022E2
:10D5F0009A63BB6854335022DA62BB6854335022BA
:10D600005A61BB68543350229A60BB68A8335022D9
:10D610001A65BB68A83350229A63BB68A8335022AE
:10D62000DA62BB68A83350225A61BB68A833502223
:10D630009A60BB68FC3350221A65BB68FC335022E9
:10D64000DA62BB68FC3350229A60BB6803F5A873AA
:10D6500050221A65BB6803F5A8735022DA62BB68D2
:10D6600003F5A87350229A60BB6803F5D273502269
:10D670001A65BB6803F5D2735022DA62BB6803F502
:10D68000D27350229A60BB6803F5FC7350225A642F
:10D69000BB6803F5FC7350229A63BB6803F5FC7307
:10D6A0005022DA62BB6803F5FC7350221A62BB6831
:10D6B00003F5FC7350225A617B6800221A7053E014
:10D6C000BB68543350225A64BB68543350229A6367
:10D6D000BB6854335022DA62BB68543350221A625A
:10D6E000BB68543350225A61BB68A83350229A63F6
:10D6F000BB68A83350229A60BB68FC3350229A63FF
:10D70000BB68FC3350229A60BB6803F5A8735022B3
:10D710009A63BB6803F5A87350229A60BB6803F54F
:10D72000D27350229A63BB6803F5D27350229A6079
:10D73000BB6803F5FC7350221A65BB6803F5FC73E4
:10D7400050225A64BB6803F5FC7350229A63BB688D
:10D7500003F5FC7350229A607B6800221A7003E084
:10D760007B6803221A7000BF00BF1437BD465DF806
:10D77000047B704780B582B000AF78600B46FB70C9
:10D78000786800F0DAFBFB78102B00F2468301A2E8
:10D7900052F823F0D9D7000835D80008A9D80008D6
:10D7A0000BD9000885D90008D7D9000841DA00084C
:10D7B00093DA0008E5DA00080FDB000861DB0008F7
:10D7C000B3DB00081DDC00086FDC0008E9DC0008A2
:10D7D0004BDD0008BFDD00087B6864225A617B686E
:10D7E00064221A627B686422DA627B683C336422BA
:10D7F0009A607B683C3364229A637B687833642246
:10D800009A607B68783364229A637B68B4336422BD
:10D810009A607B68B43364229A637B68F033642235
:10D820005A617B68F03364221A627B68F0336422A9
:10D83000DA6220E37B6832225A617B6832221A6204
:10D840007B683222DA627B683C334B229A607B68C9
:10D850003C3332225A617B683C3332221A627B6845
:10D860003C333222DA627B683C334B229A637B681A
:10D87000783364229A607B68783364229A637B6889
:10D88000B43364229A607B68B43364229A637B6801
:10D89000F03364225A617B68F03364221A627B6839
:10D8A000F0336422DA62E6E27B683C3332229A602B
:10D8B0007B683C3364225A617B683C3364221A6281
:10D8C0007B683C336422DA627B683C3332229A63A1
:10D8D0007B68783364229A607B68783364229A6329
:10D8E0007B68B43364229A607B68B43364229A63A1
:10D8F0007B68F03364225A617B68F03364221A62D9
:10D900007B68F0336422DA62B5E27B683C3319222B
:10D910009A607B683C3332225A617B683C33322206
:10D920001A627B683C333222DA627B683C3319220C
:10D930009A637B68783364229A607B6878333222FA
:10D940005A617B68783332221A627B6878333222DC
:10D95000DA627B68783364229A637B68B43364222A
:10D960009A607B68B43364229A637B68F0336422E4
:10D970005A617B68F03364221A627B68F033642258
:10D98000DA6278E27B6878334B229A607B6878337E
:10D9900064225A617B68783364221A627B68783328
:10D9A0006422DA627B6878334B229A637B68B433F3
:10D9B00064229A607B68B43364229A637B68F03394
:10D9C00064225A617B68F03364221A627B68F03308
:10D9D0006422DA624FE27B68783332229A607B6895
:10D9E000783332225A617B68783332221A627B683C
:10D9F00078333222DA627B68783332229A637B682A
:10DA0000B43364229A607B68B43332225A617B68F3
:10DA1000B43332221A627B68B4333222DA627B6812
:10DA2000B43364229A637B68F03364225A617B6862
:10DA3000F03364221A627B68F0336422DA621AE2FD
:10DA40007B68783319229A607B68783319229A634D
:10DA50007B68B43364229A607B68B43364225A6171
:10DA60007B68B43364221A627B68B4336422DA625E
:10DA70007B68B43364229A637B68F03364225A6112
:10DA80007B68F03364221A627B68F0336422DA62C6
:10DA9000F1E17B68783319229A607B687833192228
:10DAA0009A637B68B43364229A607B68B433322211
:10DAB0005A617B68B43332221A627B68B4333222F3
:10DAC000DA627B68B43364229A637B68F033642241
:10DAD0005A617B68F03364221A627B68F0336422F7
